{
  "address": "0x18E317A7D70d8fBf8e6E893616b52390EbBdb629",
  "abi": [
    {
      "inputs": [
        {
          "internalType": "contract IERC20",
          "name": "token",
          "type": "address"
        },
        {
          "internalType": "address",
          "name": "vestingPool",
          "type": "address"
        }
      ],
      "stateMutability": "nonpayable",
      "type": "constructor"
    },
    {
      "inputs": [
        {
          "internalType": "uint256",
          "name": "amount",
          "type": "uint256"
        },
        {
          "internalType": "uint256",
          "name": "claimable",
          "type": "uint256"
        }
      ],
      "name": "AmountExceedsWithdrawableAllowance",
      "type": "error"
    },
    {
      "inputs": [
        {
          "internalType": "uint256",
          "name": "timeNow",
          "type": "uint256"
        },
        {
          "internalType": "uint256",
          "name": "cliffEndsAt",
          "type": "uint256"
        }
      ],
      "name": "CliffPeriodNotEnded",
      "type": "error"
    },
    {
      "inputs": [],
      "name": "EmptyReceiversArray",
      "type": "error"
    },
    {
      "inputs": [],
      "name": "InvalidReceiverAddress",
      "type": "error"
    },
    {
      "inputs": [],
      "name": "InvalidTimelockAmount",
      "type": "error"
    },
    {
      "inputs": [
        {
          "internalType": "address",
          "name": "receiver",
          "type": "address"
        }
      ],
      "name": "ReceiverAlreadyHasATimelock",
      "type": "error"
    },
    {
      "inputs": [
        {
          "internalType": "uint256",
          "name": "terminationFrom",
          "type": "uint256"
        },
        {
          "internalType": "uint256",
          "name": "lockFrom",
          "type": "uint256"
        }
      ],
      "name": "TerminationTimeMustBeAfterLockStart",
      "type": "error"
    },
    {
      "inputs": [
        {
          "internalType": "address",
          "name": "tokenPool",
          "type": "address"
        },
        {
          "internalType": "address",
          "name": "receiver",
          "type": "address"
        },
        {
          "internalType": "uint256",
          "name": "amount",
          "type": "uint256"
        }
      ],
      "name": "TokenTransferFailed",
      "type": "error"
    },
    {
      "inputs": [],
      "name": "ZeroAllocation",
      "type": "error"
    },
    {
      "inputs": [],
      "name": "ZeroClaimAmount",
      "type": "error"
    },
    {
      "anonymous": false,
      "inputs": [
        {
          "indexed": true,
          "internalType": "address",
          "name": "previousOwner",
          "type": "address"
        },
        {
          "indexed": true,
          "internalType": "address",
          "name": "newOwner",
          "type": "address"
        }
      ],
      "name": "OwnershipTransferred",
      "type": "event"
    },
    {
      "anonymous": false,
      "inputs": [
        {
          "indexed": true,
          "internalType": "address",
          "name": "receiver",
          "type": "address"
        },
        {
          "indexed": false,
          "internalType": "uint256",
          "name": "totalAmount",
          "type": "uint256"
        },
        {
          "indexed": false,
          "internalType": "uint256",
          "name": "timelockFrom",
          "type": "uint256"
        },
        {
          "indexed": false,
          "internalType": "uint256",
          "name": "cliffDuration",
          "type": "uint256"
        },
        {
          "indexed": false,
          "internalType": "uint256",
          "name": "vestingDuration",
          "type": "uint256"
        }
      ],
      "name": "TimelockCreated",
      "type": "event"
    },
    {
      "anonymous": false,
      "inputs": [
        {
          "indexed": true,
          "internalType": "address",
          "name": "receiver",
          "type": "address"
        }
      ],
      "name": "TimelockDeterminated",
      "type": "event"
    },
    {
      "anonymous": false,
      "inputs": [
        {
          "indexed": true,
          "internalType": "address",
          "name": "receiver",
          "type": "address"
        },
        {
          "indexed": false,
          "internalType": "uint256",
          "name": "terminationFrom",
          "type": "uint256"
        }
      ],
      "name": "TimelockTerminated",
      "type": "event"
    },
    {
      "anonymous": false,
      "inputs": [
        {
          "indexed": true,
          "internalType": "address",
          "name": "receiver",
          "type": "address"
        },
        {
          "indexed": false,
          "internalType": "uint256",
          "name": "amount",
          "type": "uint256"
        }
      ],
      "name": "TokensClaimed",
      "type": "event"
    },
    {
      "inputs": [
        {
          "internalType": "address",
          "name": "receiver",
          "type": "address"
        },
        {
          "internalType": "uint256",
          "name": "totalAmount",
          "type": "uint256"
        },
        {
          "internalType": "uint256",
          "name": "timelockFrom",
          "type": "uint256"
        },
        {
          "internalType": "uint256",
          "name": "cliffDuration",
          "type": "uint256"
        },
        {
          "internalType": "uint256",
          "name": "vestingDuration",
          "type": "uint256"
        }
      ],
      "name": "addTimelock",
      "outputs": [],
      "stateMutability": "nonpayable",
      "type": "function"
    },
    {
      "inputs": [
        {
          "components": [
            {
              "internalType": "address",
              "name": "receiver",
              "type": "address"
            },
            {
              "internalType": "uint256",
              "name": "totalAmount",
              "type": "uint256"
            },
            {
              "internalType": "uint256",
              "name": "timelockFrom",
              "type": "uint256"
            },
            {
              "internalType": "uint256",
              "name": "cliffDuration",
              "type": "uint256"
            },
            {
              "internalType": "uint256",
              "name": "vestingDuration",
              "type": "uint256"
            }
          ],
          "internalType": "struct IBatchTimelock.Receiver[]",
          "name": "receivers",
          "type": "tuple[]"
        }
      ],
      "name": "addTimelockBatch",
      "outputs": [],
      "stateMutability": "nonpayable",
      "type": "function"
    },
    {
      "inputs": [
        {
          "internalType": "uint256",
          "name": "amount",
          "type": "uint256"
        }
      ],
      "name": "claim",
      "outputs": [],
      "stateMutability": "nonpayable",
      "type": "function"
    },
    {
      "inputs": [
        {
          "internalType": "address",
          "name": "receiver",
          "type": "address"
        }
      ],
      "name": "determinate",
      "outputs": [],
      "stateMutability": "nonpayable",
      "type": "function"
    },
    {
      "inputs": [
        {
          "internalType": "address",
          "name": "receiver",
          "type": "address"
        }
      ],
      "name": "getClaimableBalance",
      "outputs": [
        {
          "internalType": "uint256",
          "name": "",
          "type": "uint256"
        }
      ],
      "stateMutability": "view",
      "type": "function"
    },
    {
      "inputs": [],
      "name": "getCurrentAllowance",
      "outputs": [
        {
          "internalType": "uint256",
          "name": "",
          "type": "uint256"
        }
      ],
      "stateMutability": "view",
      "type": "function"
    },
    {
      "inputs": [
        {
          "internalType": "address",
          "name": "receiver",
          "type": "address"
        }
      ],
      "name": "getTimelock",
      "outputs": [
        {
          "components": [
            {
              "internalType": "address",
              "name": "receiver",
              "type": "address"
            },
            {
              "internalType": "uint256",
              "name": "totalAmount",
              "type": "uint256"
            },
            {
              "internalType": "uint256",
              "name": "releasedAmount",
              "type": "uint256"
            },
            {
              "internalType": "uint256",
              "name": "timelockFrom",
              "type": "uint256"
            },
            {
              "internalType": "uint256",
              "name": "cliffDuration",
              "type": "uint256"
            },
            {
              "internalType": "uint256",
              "name": "vestingDuration",
              "type": "uint256"
            },
            {
              "internalType": "uint256",
              "name": "terminationFrom",
              "type": "uint256"
            },
            {
              "internalType": "bool",
              "name": "isTerminated",
              "type": "bool"
            }
          ],
          "internalType": "struct IBatchTimelock.Timelock",
          "name": "",
          "type": "tuple"
        }
      ],
      "stateMutability": "view",
      "type": "function"
    },
    {
      "inputs": [
        {
          "internalType": "uint256",
          "name": "offset",
          "type": "uint256"
        },
        {
          "internalType": "uint256",
          "name": "limit",
          "type": "uint256"
        }
      ],
      "name": "getTimelockReceivers",
      "outputs": [
        {
          "internalType": "address[]",
          "name": "",
          "type": "address[]"
        }
      ],
      "stateMutability": "view",
      "type": "function"
    },
    {
      "inputs": [],
      "name": "getTimelockReceiversAmount",
      "outputs": [
        {
          "internalType": "uint256",
          "name": "",
          "type": "uint256"
        }
      ],
      "stateMutability": "view",
      "type": "function"
    },
    {
      "inputs": [],
      "name": "getTokenAddress",
      "outputs": [
        {
          "internalType": "address",
          "name": "",
          "type": "address"
        }
      ],
      "stateMutability": "view",
      "type": "function"
    },
    {
      "inputs": [],
      "name": "getTotalTokensLocked",
      "outputs": [
        {
          "internalType": "uint256",
          "name": "",
          "type": "uint256"
        }
      ],
      "stateMutability": "view",
      "type": "function"
    },
    {
      "inputs": [],
      "name": "getVestingPoolAddress",
      "outputs": [
        {
          "internalType": "address",
          "name": "",
          "type": "address"
        }
      ],
      "stateMutability": "view",
      "type": "function"
    },
    {
      "inputs": [],
      "name": "owner",
      "outputs": [
        {
          "internalType": "address",
          "name": "",
          "type": "address"
        }
      ],
      "stateMutability": "view",
      "type": "function"
    },
    {
      "inputs": [],
      "name": "renounceOwnership",
      "outputs": [],
      "stateMutability": "nonpayable",
      "type": "function"
    },
    {
      "inputs": [
        {
          "internalType": "address",
          "name": "receiver",
          "type": "address"
        },
        {
          "internalType": "uint256",
          "name": "terminationFrom",
          "type": "uint256"
        }
      ],
      "name": "terminate",
      "outputs": [],
      "stateMutability": "nonpayable",
      "type": "function"
    },
    {
      "inputs": [
        {
          "internalType": "address",
          "name": "newOwner",
          "type": "address"
        }
      ],
      "name": "transferOwnership",
      "outputs": [],
      "stateMutability": "nonpayable",
      "type": "function"
    }
  ],
  "transactionHash": "0xfbb495b3f3b78ac61c8cba2acd7b083616ffc0dd8e0cdacf65f263c6f584241e",
  "args": [
    "0xe8D2A1E88c91DCd5433208d4152Cc4F399a7e91d",
    "0x70997970C51812dc3A010C7d01b50e0d17dc79C8"
  ],
  "numDeployments": 1,
  "solcInputHash": "a3c7998297c0bcbf59bf1d5622663257",
  "bytecode": "0x608060405234801561001057600080fd5b5060405161130638038061130683398101604081905261002f916100d1565b61003833610069565b600180546001600160a01b039384166001600160a01b0319918216179091556002805492909316911617905561010b565b600080546001600160a01b038381166001600160a01b0319831681178455604051919092169283917f8be0079c531659141344cd1fd0a4f28419497f9722a3daafe3b4186f6b6457e09190a35050565b6001600160a01b03811681146100ce57600080fd5b50565b600080604083850312156100e457600080fd5b82516100ef816100b9565b6020840151909250610100816100b9565b809150509250929050565b6111ec8061011a6000396000f3fe608060405234801561001057600080fd5b50600436106101005760003560e01c8063a604b44e11610097578063f275684d11610066578063f275684d14610247578063f2fde38b1461025a578063f458b5e61461026d578063f6d78b651461028d57600080fd5b8063a604b44e1461019f578063b9fea7d0146101a7578063bf1e799b146101ba578063ccc9305d1461023457600080fd5b8063379607f5116100d3578063379607f5146101695780634958e1a11461017e578063715018a6146101865780638da5cb5b1461018e57600080fd5b806303f7a68c1461010557806306def802146101205780630a463e1c1461013357806310fe9ae814610158575b600080fd5b61010d6102a0565b6040519081526020015b60405180910390f35b61010d61012e366004610e69565b610320565b6002546001600160a01b03165b6040516001600160a01b039091168152602001610117565b6001546001600160a01b0316610140565b61017c610177366004610e84565b61044b565b005b61010d610661565b61017c61066d565b6000546001600160a01b0316610140565b61010d610681565b61017c6101b5366004610e69565b6106e7565b6101cd6101c8366004610e69565b610747565b604051610117919081516001600160a01b031681526020808301519082015260408083015190820152606080830151908201526080808301519082015260a0828101519082015260c0808301519082015260e0918201511515918101919091526101000190565b61017c610242366004610e9d565b610817565b61017c610255366004610f37565b6108cb565b61017c610268366004610e69565b6109b5565b61028061027b366004611026565b610a2e565b6040516101179190611048565b61017c61029b366004611095565b610b27565b600154600254604051636eb1769f60e11b81526001600160a01b039182166004820152306024820152600092919091169063dd62ed3e90604401602060405180830381865afa1580156102f7573d6000803e3d6000fd5b505050506040513d601f19601f8201168201806040525081019061031b91906110d7565b905090565b6001600160a01b038116600090815260056020526040812060048101546003820154839161034d91611106565b9050428181101561036357506000949350505050565b600783015460009060ff161561039c5782846006015411610385576000610395565b8284600601546103959190611119565b90506103cf565b60008460050154846103ae9190611106565b90508083106103c15784600501546103cb565b6103cb8484611119565b9150505b600084600501548286600101546103e6919061112c565b6103f09190611143565b9050600085600201548211610406576000610415565b60028601546104159083611119565b600787015490915060ff168015610430575085600601548410155b1561044057979650505050505050565b979650505050505050565b336000818152600560205260409020546001600160a01b0316146104825760405163502ffa3f60e11b815260040160405180910390fd5b806000036104a3576040516360640efd60e11b815260040160405180910390fd5b3360009081526005602052604090206004810154600382015442916104c791611106565b81101561050a5780826004015483600301546104e39190611106565b6040516367f2a6c360e11b8152600481019290925260248201526044015b60405180910390fd5b600061051533610320565b9050808411156105425760405163271fb30560e21b81526004810185905260248101829052604401610501565b838360020160008282546105569190611106565b90915550506001546002546001600160a01b03918216916323b872dd9116336040516001600160e01b031960e085901b1681526001600160a01b03928316600482015291166024820152604481018790526064016020604051808303816000875af11580156105c9573d6000803e3d6000fd5b505050506040513d601f19601f820116820180604052508101906105ed9190611165565b6106265760025460405163190eecf360e31b81526001600160a01b03909116600482015233602482015260448101859052606401610501565b60405184815233907f896e034966eaaf1adc54acc0f257056febbd300c9e47182cf761982cf1f5e4309060200160405180910390a250505050565b600061031b6003610b43565b610675610b4d565b61067f6000610ba7565b565b600080805b6106906003610b43565b8110156106e157600560006106a6600384610bf7565b6001600160a01b031681526020810191909152604001600020600101546106cd9083611106565b9150806106d981611187565b915050610686565b50919050565b6106ef610b4d565b6001600160a01b03811660008181526005602052604080822060078101805460ff191690556006810183905590519092917f6f64e2246d8a5cd8d55ea99199b39ac605693722f899ac2405b7c54bae3eda7e91a25050565b61079a60405180610100016040528060006001600160a01b031681526020016000815260200160008152602001600081526020016000815260200160008152602001600081526020016000151581525090565b506001600160a01b0390811660009081526005602081815260409283902083516101008101855281549095168552600181015491850191909152600281015492840192909252600382015460608401526004820154608084015281015460a0830152600681015460c08301526007015460ff16151560e082015290565b61081f610b4d565b6001600160a01b03821660009081526005602052604090206003810154821161086b5760038101546040516349d7e3e960e01b8152610501918491600401918252602082015260400190565b6006810182905560078101805460ff191660011790556040516001600160a01b038416907f96a3db8ae0226bd6c5e331039c8dc9bad983d211de42680d9775dfbddb1b71a9906108be9085815260200190565b60405180910390a2505050565b6108d3610b4d565b80516000036108f55760405163d77fbd1d60e01b815260040160405180910390fd5b60005b81518110156109b15761099f828281518110610916576109166111a0565b602002602001015160000151838381518110610934576109346111a0565b602002602001015160200151848481518110610952576109526111a0565b602002602001015160400151858581518110610970576109706111a0565b60200260200101516060015186868151811061098e5761098e6111a0565b602002602001015160800151610c0a565b806109a981611187565b9150506108f8565b5050565b6109bd610b4d565b6001600160a01b038116610a225760405162461bcd60e51b815260206004820152602660248201527f4f776e61626c653a206e6577206f776e657220697320746865207a65726f206160448201526564647265737360d01b6064820152608401610501565b610a2b81610ba7565b50565b60606000610a3c6003610b43565b9050808410610a5b575050604080516000815260208101909152610b21565b80610a668486611106565b1115610a7957610a768482611119565b92505b60008367ffffffffffffffff811115610a9457610a94610ec7565b604051908082528060200260200182016040528015610abd578160200160208202803683370190505b50905060005b84811015610b1c57610ae0610ad88288611106565b600390610bf7565b828281518110610af257610af26111a0565b6001600160a01b039092166020928302919091019091015280610b1481611187565b915050610ac3565b509150505b92915050565b610b2f610b4d565b610b3c8585858585610c0a565b5050505050565b6000610b21825490565b6000546001600160a01b0316331461067f5760405162461bcd60e51b815260206004820181905260248201527f4f776e61626c653a2063616c6c6572206973206e6f7420746865206f776e65726044820152606401610501565b600080546001600160a01b038381166001600160a01b0319831681178455604051919092169283917f8be0079c531659141344cd1fd0a4f28419497f9722a3daafe3b4186f6b6457e09190a35050565b6000610c038383610da2565b9392505050565b610c12610b4d565b6001600160a01b038516610c395760405163502ffa3f60e11b815260040160405180910390fd5b83600003610c5a576040516307e7e9a960e21b815260040160405180910390fd5b610c65600386610dcc565b15610c8d57604051620118fb60e11b81526001600160a01b0386166004820152602401610501565b60408051610100810182526001600160a01b0387811680835260208084018981526000858701818152606087018b8152608088018b815260a089018b815260c08a0185815260e08b018681529886526005978890529a909420985189546001600160a01b03191698169790971788559251600188015551600287015590516003808701919091559351600486015551908401559251600683015591516007909101805460ff1916911515919091179055610d479086610dee565b506040805185815260208101859052908101839052606081018290526001600160a01b038616907f9f7f47e73fd629c582be438a08553de4dc70f4b96c2735ad7ff9ec4314096e859060800160405180910390a25050505050565b6000826000018281548110610db957610db96111a0565b9060005260206000200154905092915050565b6001600160a01b03811660009081526001830160205260408120541515610c03565b6000610c03836001600160a01b0384166000818152600183016020526040812054610e4557508154600181810184556000848152602080822090930184905584548482528286019093526040902091909155610b21565b506000610b21565b80356001600160a01b0381168114610e6457600080fd5b919050565b600060208284031215610e7b57600080fd5b610c0382610e4d565b600060208284031215610e9657600080fd5b5035919050565b60008060408385031215610eb057600080fd5b610eb983610e4d565b946020939093013593505050565b634e487b7160e01b600052604160045260246000fd5b60405160a0810167ffffffffffffffff81118282101715610f0057610f00610ec7565b60405290565b604051601f8201601f1916810167ffffffffffffffff81118282101715610f2f57610f2f610ec7565b604052919050565b60006020808385031215610f4a57600080fd5b823567ffffffffffffffff80821115610f6257600080fd5b818501915085601f830112610f7657600080fd5b813581811115610f8857610f88610ec7565b610f96848260051b01610f06565b818152848101925060a0918202840185019188831115610fb557600080fd5b938501935b8285101561101a5780858a031215610fd25760008081fd5b610fda610edd565b610fe386610e4d565b8152858701358782015260408087013590820152606080870135908201526080808701359082015284529384019392850192610fba565b50979650505050505050565b6000806040838503121561103957600080fd5b50508035926020909101359150565b6020808252825182820181905260009190848201906040850190845b818110156110895783516001600160a01b031683529284019291840191600101611064565b50909695505050505050565b600080600080600060a086880312156110ad57600080fd5b6110b686610e4d565b97602087013597506040870135966060810135965060800135945092505050565b6000602082840312156110e957600080fd5b5051919050565b634e487b7160e01b600052601160045260246000fd5b80820180821115610b2157610b216110f0565b81810381811115610b2157610b216110f0565b8082028115828204841417610b2157610b216110f0565b60008261116057634e487b7160e01b600052601260045260246000fd5b500490565b60006020828403121561117757600080fd5b81518015158114610c0357600080fd5b600060018201611199576111996110f0565b5060010190565b634e487b7160e01b600052603260045260246000fdfea26469706673582212208a60bbae3b2a5c5fc27e0a56c4bf149711b0ecfdf0876fbf19c6156129a6dcfb64736f6c63430008130033",
  "devdoc": {
    "errors": {
      "AmountExceedsWithdrawableAllowance(uint256,uint256)": [
        {
          "params": {
            "amount": "Amount of tokens to be claimed.",
            "claimable": "Amount of tokens that can be claimed."
          }
        }
      ],
      "ReceiverAlreadyHasATimelock(address)": [
        {
          "params": {
            "receiver": "Address of the receiver."
          }
        }
      ],
      "TerminationTimeMustBeAfterLockStart(uint256,uint256)": [
        {
          "params": {
            "lockFrom": "Timestamp from which tokens will be locked.",
            "terminationFrom": "Timestamp from which tokens will be terminated."
          }
        }
      ],
      "TokenTransferFailed(address,address,uint256)": [
        {
          "params": {
            "amount": "Amount of tokens transferred.",
            "receiver": "Address of the receiver.",
            "tokenPool": "Address of the token pool."
          }
        }
      ]
    },
    "events": {
      "TimelockCreated(address,uint256,uint256,uint256,uint256)": {
        "params": {
          "cliffDuration": "Cliff time in seconds (6 months default).",
          "receiver": "Address of the receiver.",
          "totalAmount": "Total amount of tokens to be vested.",
          "vestingDuration": "Vesting duration in seconds (18/24 months)."
        }
      },
      "TimelockDeterminated(address)": {
        "params": {
          "receiver": "Address of the receiver."
        }
      },
      "TimelockTerminated(address,uint256)": {
        "params": {
          "receiver": "Address of the receiver.",
          "terminationFrom": "Timestamp from which tokens will be terminated."
        }
      },
      "TokensClaimed(address,uint256)": {
        "params": {
          "amount": "Amount of tokens claimed.",
          "receiver": "Address of the claimer."
        }
      }
    },
    "kind": "dev",
    "methods": {
      "addTimelock(address,uint256,uint256,uint256,uint256)": {
        "params": {
          "cliffDuration": "Cliff time in seconds (6 months default).",
          "receiver": "Address of the receiver.",
          "timelockFrom": "Timestamp from which the timelock will start.",
          "totalAmount": "Total amount of tokens to be vested.",
          "vestingDuration": "Vesting duration in seconds (18/24 months)."
        }
      },
      "addTimelockBatch((address,uint256,uint256,uint256,uint256)[])": {
        "params": {
          "receivers": "Array of receivers."
        }
      },
      "claim(uint256)": {
        "params": {
          "amount": "Amount of tokens to be claimed."
        }
      },
      "determinate(address)": {
        "params": {
          "receiver": "Address of the receiver."
        }
      },
      "getClaimableBalance(address)": {
        "params": {
          "receiver": "Address of the receiver."
        }
      },
      "getTimelock(address)": {
        "params": {
          "receiver": "Address of the receiver."
        }
      },
      "getTimelockReceivers(uint256,uint256)": {
        "params": {
          "limit": "Limit of receivers to be returned.",
          "offset": "Offset from which receivers will be returned."
        }
      },
      "owner()": {
        "details": "Returns the address of the current owner."
      },
      "renounceOwnership()": {
        "details": "Leaves the contract without owner. It will not be possible to call `onlyOwner` functions. Can only be called by the current owner. NOTE: Renouncing ownership will leave the contract without an owner, thereby disabling any functionality that is only available to the owner."
      },
      "terminate(address,uint256)": {
        "params": {
          "receiver": "Address of the receiver.",
          "terminationFrom": "Timestamp from which tokens will be terminated."
        }
      },
      "transferOwnership(address)": {
        "details": "Transfers ownership of the contract to a new account (`newOwner`). Can only be called by the current owner."
      }
    },
    "stateVariables": {
      "_token": {
        "details": "Link to IQT repository: https://github.com/iqlabsorg/iqt-eth"
      }
    },
    "version": 1
  },
  "userdoc": {
    "errors": {
      "AmountExceedsWithdrawableAllowance(uint256,uint256)": [
        {
          "notice": "Reverts if amount exceeds vesting allowance."
        }
      ],
      "CliffPeriodNotEnded(uint256,uint256)": [
        {
          "notice": "Reverts if cliff period has not ended."
        }
      ],
      "EmptyReceiversArray()": [
        {
          "notice": "Reverts if empty receivers array is passed."
        }
      ],
      "InvalidReceiverAddress()": [
        {
          "notice": "Reverts if invalid receiver address is passed."
        }
      ],
      "InvalidTimelockAmount()": [
        {
          "notice": "Reverts if invalid timelock amount is passed."
        }
      ],
      "ReceiverAlreadyHasATimelock(address)": [
        {
          "notice": "Reverts if receiver already has a timelock."
        }
      ],
      "TerminationTimeMustBeAfterLockStart(uint256,uint256)": [
        {
          "notice": "Reverts if termination time is before lock start."
        }
      ],
      "TokenTransferFailed(address,address,uint256)": [
        {
          "notice": "Reverts if token transfer failed."
        }
      ],
      "ZeroAllocation()": [
        {
          "notice": "Reverts if vesting period has not started."
        }
      ],
      "ZeroClaimAmount()": [
        {
          "notice": "Reverts if zero claim amount is passed."
        }
      ]
    },
    "events": {
      "TimelockCreated(address,uint256,uint256,uint256,uint256)": {
        "notice": "Emits when timelock is created."
      },
      "TimelockDeterminated(address)": {
        "notice": "Emits when timelock is determinated."
      },
      "TimelockTerminated(address,uint256)": {
        "notice": "Emits when timelock is terminated."
      },
      "TokensClaimed(address,uint256)": {
        "notice": "Emits when tokens are claimed."
      }
    },
    "kind": "user",
    "methods": {
      "addTimelock(address,uint256,uint256,uint256,uint256)": {
        "notice": "Creates timelock for token receiver."
      },
      "addTimelockBatch((address,uint256,uint256,uint256,uint256)[])": {
        "notice": "Creates timelock for token receivers in a batch mode."
      },
      "claim(uint256)": {
        "notice": "Claims tokens for the receiver."
      },
      "constructor": {
        "notice": "Reverts if the timelock does not exist."
      },
      "determinate(address)": {
        "notice": "Determinates timelock for the receiver."
      },
      "getClaimableBalance(address)": {
        "notice": "Returns the amount of tokens that are currently allowed for claim."
      },
      "getCurrentAllowance()": {
        "notice": "Returns the amount of tokens that are currently allowed for transfer."
      },
      "getTimelock(address)": {
        "notice": "Returns the timelock data."
      },
      "getTimelockReceivers(uint256,uint256)": {
        "notice": "Returns the array of timelock receivers."
      },
      "getTimelockReceiversAmount()": {
        "notice": "Returns the amount of timelock receivers."
      },
      "getTokenAddress()": {
        "notice": "Returns the address of token."
      },
      "getTotalTokensLocked()": {
        "notice": "Returns the amount of tokens that are currently locked."
      },
      "getVestingPoolAddress()": {
        "notice": "Returns the address of vesting pool."
      },
      "terminate(address,uint256)": {
        "notice": "Terminates timelock for the receiver."
      }
    },
    "version": 1
  },
  "storageLayout": {
    "storage": [
      {
        "astId": 7,
        "contract": "contracts/timelock/BatchTimelock.sol:BatchTimelock",
        "label": "_owner",
        "offset": 0,
        "slot": "0",
        "type": "t_address"
      },
      {
        "astId": 849,
        "contract": "contracts/timelock/BatchTimelock.sol:BatchTimelock",
        "label": "_token",
        "offset": 0,
        "slot": "1",
        "type": "t_contract(IERC20)190"
      },
      {
        "astId": 852,
        "contract": "contracts/timelock/BatchTimelock.sol:BatchTimelock",
        "label": "_vestingPool",
        "offset": 0,
        "slot": "2",
        "type": "t_address"
      },
      {
        "astId": 856,
        "contract": "contracts/timelock/BatchTimelock.sol:BatchTimelock",
        "label": "_allReceivers",
        "offset": 0,
        "slot": "3",
        "type": "t_struct(AddressSet)538_storage"
      },
      {
        "astId": 862,
        "contract": "contracts/timelock/BatchTimelock.sol:BatchTimelock",
        "label": "_timelocks",
        "offset": 0,
        "slot": "5",
        "type": "t_mapping(t_address,t_struct(Timelock)1588_storage)"
      }
    ],
    "types": {
      "t_address": {
        "encoding": "inplace",
        "label": "address",
        "numberOfBytes": "20"
      },
      "t_array(t_bytes32)dyn_storage": {
        "base": "t_bytes32",
        "encoding": "dynamic_array",
        "label": "bytes32[]",
        "numberOfBytes": "32"
      },
      "t_bool": {
        "encoding": "inplace",
        "label": "bool",
        "numberOfBytes": "1"
      },
      "t_bytes32": {
        "encoding": "inplace",
        "label": "bytes32",
        "numberOfBytes": "32"
      },
      "t_contract(IERC20)190": {
        "encoding": "inplace",
        "label": "contract IERC20",
        "numberOfBytes": "20"
      },
      "t_mapping(t_address,t_struct(Timelock)1588_storage)": {
        "encoding": "mapping",
        "key": "t_address",
        "label": "mapping(address => struct IBatchTimelock.Timelock)",
        "numberOfBytes": "32",
        "value": "t_struct(Timelock)1588_storage"
      },
      "t_mapping(t_bytes32,t_uint256)": {
        "encoding": "mapping",
        "key": "t_bytes32",
        "label": "mapping(bytes32 => uint256)",
        "numberOfBytes": "32",
        "value": "t_uint256"
      },
      "t_struct(AddressSet)538_storage": {
        "encoding": "inplace",
        "label": "struct EnumerableSet.AddressSet",
        "members": [
          {
            "astId": 537,
            "contract": "contracts/timelock/BatchTimelock.sol:BatchTimelock",
            "label": "_inner",
            "offset": 0,
            "slot": "0",
            "type": "t_struct(Set)223_storage"
          }
        ],
        "numberOfBytes": "64"
      },
      "t_struct(Set)223_storage": {
        "encoding": "inplace",
        "label": "struct EnumerableSet.Set",
        "members": [
          {
            "astId": 218,
            "contract": "contracts/timelock/BatchTimelock.sol:BatchTimelock",
            "label": "_values",
            "offset": 0,
            "slot": "0",
            "type": "t_array(t_bytes32)dyn_storage"
          },
          {
            "astId": 222,
            "contract": "contracts/timelock/BatchTimelock.sol:BatchTimelock",
            "label": "_indexes",
            "offset": 0,
            "slot": "1",
            "type": "t_mapping(t_bytes32,t_uint256)"
          }
        ],
        "numberOfBytes": "64"
      },
      "t_struct(Timelock)1588_storage": {
        "encoding": "inplace",
        "label": "struct IBatchTimelock.Timelock",
        "members": [
          {
            "astId": 1573,
            "contract": "contracts/timelock/BatchTimelock.sol:BatchTimelock",
            "label": "receiver",
            "offset": 0,
            "slot": "0",
            "type": "t_address"
          },
          {
            "astId": 1575,
            "contract": "contracts/timelock/BatchTimelock.sol:BatchTimelock",
            "label": "totalAmount",
            "offset": 0,
            "slot": "1",
            "type": "t_uint256"
          },
          {
            "astId": 1577,
            "contract": "contracts/timelock/BatchTimelock.sol:BatchTimelock",
            "label": "releasedAmount",
            "offset": 0,
            "slot": "2",
            "type": "t_uint256"
          },
          {
            "astId": 1579,
            "contract": "contracts/timelock/BatchTimelock.sol:BatchTimelock",
            "label": "timelockFrom",
            "offset": 0,
            "slot": "3",
            "type": "t_uint256"
          },
          {
            "astId": 1581,
            "contract": "contracts/timelock/BatchTimelock.sol:BatchTimelock",
            "label": "cliffDuration",
            "offset": 0,
            "slot": "4",
            "type": "t_uint256"
          },
          {
            "astId": 1583,
            "contract": "contracts/timelock/BatchTimelock.sol:BatchTimelock",
            "label": "vestingDuration",
            "offset": 0,
            "slot": "5",
            "type": "t_uint256"
          },
          {
            "astId": 1585,
            "contract": "contracts/timelock/BatchTimelock.sol:BatchTimelock",
            "label": "terminationFrom",
            "offset": 0,
            "slot": "6",
            "type": "t_uint256"
          },
          {
            "astId": 1587,
            "contract": "contracts/timelock/BatchTimelock.sol:BatchTimelock",
            "label": "isTerminated",
            "offset": 0,
            "slot": "7",
            "type": "t_bool"
          }
        ],
        "numberOfBytes": "256"
      },
      "t_uint256": {
        "encoding": "inplace",
        "label": "uint256",
        "numberOfBytes": "32"
      }
    }
  }
}