{
  "address": "0x202CCe504e04bEd6fC0521238dDf04Bc9E8E15aB",
  "abi": [
    {
      "inputs": [
        {
          "internalType": "contract IERC20",
          "name": "token",
          "type": "address"
        },
        {
          "internalType": "address",
          "name": "vestingPool",
          "type": "address"
        }
      ],
      "stateMutability": "nonpayable",
      "type": "constructor"
    },
    {
      "inputs": [
        {
          "internalType": "uint256",
          "name": "amount",
          "type": "uint256"
        },
        {
          "internalType": "uint256",
          "name": "claimable",
          "type": "uint256"
        }
      ],
      "name": "AmountExceedsWithdrawableAllowance",
      "type": "error"
    },
    {
      "inputs": [
        {
          "internalType": "uint256",
          "name": "timeNow",
          "type": "uint256"
        },
        {
          "internalType": "uint256",
          "name": "cliffEndsAt",
          "type": "uint256"
        }
      ],
      "name": "CliffPeriodNotEnded",
      "type": "error"
    },
    {
      "inputs": [],
      "name": "EmptyReceiversArray",
      "type": "error"
    },
    {
      "inputs": [],
      "name": "InvalidReceiverAddress",
      "type": "error"
    },
    {
      "inputs": [],
      "name": "InvalidTimelockAmount",
      "type": "error"
    },
    {
      "inputs": [
        {
          "internalType": "address",
          "name": "receiver",
          "type": "address"
        }
      ],
      "name": "ReceiverAlreadyHasATimelock",
      "type": "error"
    },
    {
      "inputs": [
        {
          "internalType": "uint256",
          "name": "terminationFrom",
          "type": "uint256"
        },
        {
          "internalType": "uint256",
          "name": "lockFrom",
          "type": "uint256"
        }
      ],
      "name": "TerminationTimeMustBeAfterLockStart",
      "type": "error"
    },
    {
      "inputs": [
        {
          "internalType": "address",
          "name": "receiver",
          "type": "address"
        },
        {
          "internalType": "uint256",
          "name": "terminationFrom",
          "type": "uint256"
        }
      ],
      "name": "TimelockIsTerminated",
      "type": "error"
    },
    {
      "inputs": [
        {
          "internalType": "address",
          "name": "tokenPool",
          "type": "address"
        },
        {
          "internalType": "address",
          "name": "receiver",
          "type": "address"
        },
        {
          "internalType": "uint256",
          "name": "amount",
          "type": "uint256"
        }
      ],
      "name": "TokenTransferFailed",
      "type": "error"
    },
    {
      "inputs": [],
      "name": "ZeroAllocation",
      "type": "error"
    },
    {
      "inputs": [],
      "name": "ZeroClaimAmount",
      "type": "error"
    },
    {
      "anonymous": false,
      "inputs": [
        {
          "indexed": true,
          "internalType": "address",
          "name": "previousOwner",
          "type": "address"
        },
        {
          "indexed": true,
          "internalType": "address",
          "name": "newOwner",
          "type": "address"
        }
      ],
      "name": "OwnershipTransferred",
      "type": "event"
    },
    {
      "anonymous": false,
      "inputs": [
        {
          "indexed": true,
          "internalType": "address",
          "name": "receiver",
          "type": "address"
        },
        {
          "indexed": false,
          "internalType": "uint256",
          "name": "totalAmount",
          "type": "uint256"
        },
        {
          "indexed": false,
          "internalType": "uint256",
          "name": "timelockFrom",
          "type": "uint256"
        },
        {
          "indexed": false,
          "internalType": "uint256",
          "name": "cliffDuration",
          "type": "uint256"
        },
        {
          "indexed": false,
          "internalType": "uint256",
          "name": "vestingDuration",
          "type": "uint256"
        }
      ],
      "name": "TimelockCreated",
      "type": "event"
    },
    {
      "anonymous": false,
      "inputs": [
        {
          "indexed": true,
          "internalType": "address",
          "name": "receiver",
          "type": "address"
        }
      ],
      "name": "TimelockDeterminated",
      "type": "event"
    },
    {
      "anonymous": false,
      "inputs": [
        {
          "indexed": true,
          "internalType": "address",
          "name": "receiver",
          "type": "address"
        },
        {
          "indexed": false,
          "internalType": "uint256",
          "name": "terminationFrom",
          "type": "uint256"
        }
      ],
      "name": "TimelockTerminated",
      "type": "event"
    },
    {
      "anonymous": false,
      "inputs": [
        {
          "indexed": true,
          "internalType": "address",
          "name": "receiver",
          "type": "address"
        },
        {
          "indexed": false,
          "internalType": "uint256",
          "name": "amount",
          "type": "uint256"
        }
      ],
      "name": "TokensClaimed",
      "type": "event"
    },
    {
      "inputs": [
        {
          "internalType": "address",
          "name": "receiver",
          "type": "address"
        },
        {
          "internalType": "uint256",
          "name": "totalAmount",
          "type": "uint256"
        },
        {
          "internalType": "uint256",
          "name": "timelockFrom",
          "type": "uint256"
        },
        {
          "internalType": "uint256",
          "name": "cliffDuration",
          "type": "uint256"
        },
        {
          "internalType": "uint256",
          "name": "vestingDuration",
          "type": "uint256"
        }
      ],
      "name": "addTimelock",
      "outputs": [],
      "stateMutability": "nonpayable",
      "type": "function"
    },
    {
      "inputs": [
        {
          "components": [
            {
              "internalType": "address",
              "name": "receiver",
              "type": "address"
            },
            {
              "internalType": "uint256",
              "name": "totalAmount",
              "type": "uint256"
            },
            {
              "internalType": "uint256",
              "name": "timelockFrom",
              "type": "uint256"
            },
            {
              "internalType": "uint256",
              "name": "cliffDuration",
              "type": "uint256"
            },
            {
              "internalType": "uint256",
              "name": "vestingDuration",
              "type": "uint256"
            }
          ],
          "internalType": "struct IBatchTimelock.Receiver[]",
          "name": "receivers",
          "type": "tuple[]"
        }
      ],
      "name": "addTimelockBatch",
      "outputs": [],
      "stateMutability": "nonpayable",
      "type": "function"
    },
    {
      "inputs": [
        {
          "internalType": "uint256",
          "name": "amount",
          "type": "uint256"
        }
      ],
      "name": "claim",
      "outputs": [],
      "stateMutability": "nonpayable",
      "type": "function"
    },
    {
      "inputs": [
        {
          "internalType": "address",
          "name": "receiver",
          "type": "address"
        }
      ],
      "name": "determinate",
      "outputs": [],
      "stateMutability": "nonpayable",
      "type": "function"
    },
    {
      "inputs": [
        {
          "internalType": "address",
          "name": "receiver",
          "type": "address"
        }
      ],
      "name": "getClaimableBalance",
      "outputs": [
        {
          "internalType": "uint256",
          "name": "",
          "type": "uint256"
        }
      ],
      "stateMutability": "view",
      "type": "function"
    },
    {
      "inputs": [],
      "name": "getCurrentAllowance",
      "outputs": [
        {
          "internalType": "uint256",
          "name": "",
          "type": "uint256"
        }
      ],
      "stateMutability": "view",
      "type": "function"
    },
    {
      "inputs": [
        {
          "internalType": "address",
          "name": "receiver",
          "type": "address"
        }
      ],
      "name": "getTimelock",
      "outputs": [
        {
          "components": [
            {
              "internalType": "address",
              "name": "receiver",
              "type": "address"
            },
            {
              "internalType": "uint256",
              "name": "totalAmount",
              "type": "uint256"
            },
            {
              "internalType": "uint256",
              "name": "releasedAmount",
              "type": "uint256"
            },
            {
              "internalType": "uint256",
              "name": "timelockFrom",
              "type": "uint256"
            },
            {
              "internalType": "uint256",
              "name": "cliffDuration",
              "type": "uint256"
            },
            {
              "internalType": "uint256",
              "name": "vestingDuration",
              "type": "uint256"
            },
            {
              "internalType": "uint256",
              "name": "terminationFrom",
              "type": "uint256"
            },
            {
              "internalType": "bool",
              "name": "isTerminated",
              "type": "bool"
            }
          ],
          "internalType": "struct IBatchTimelock.Timelock",
          "name": "",
          "type": "tuple"
        }
      ],
      "stateMutability": "view",
      "type": "function"
    },
    {
      "inputs": [
        {
          "internalType": "uint256",
          "name": "offset",
          "type": "uint256"
        },
        {
          "internalType": "uint256",
          "name": "limit",
          "type": "uint256"
        }
      ],
      "name": "getTimelockReceivers",
      "outputs": [
        {
          "internalType": "address[]",
          "name": "",
          "type": "address[]"
        }
      ],
      "stateMutability": "view",
      "type": "function"
    },
    {
      "inputs": [],
      "name": "getTimelockReceiversAmount",
      "outputs": [
        {
          "internalType": "uint256",
          "name": "",
          "type": "uint256"
        }
      ],
      "stateMutability": "view",
      "type": "function"
    },
    {
      "inputs": [],
      "name": "getTokenAddress",
      "outputs": [
        {
          "internalType": "address",
          "name": "",
          "type": "address"
        }
      ],
      "stateMutability": "view",
      "type": "function"
    },
    {
      "inputs": [],
      "name": "getTotalTokensLocked",
      "outputs": [
        {
          "internalType": "uint256",
          "name": "",
          "type": "uint256"
        }
      ],
      "stateMutability": "view",
      "type": "function"
    },
    {
      "inputs": [],
      "name": "getVestingPoolAddress",
      "outputs": [
        {
          "internalType": "address",
          "name": "",
          "type": "address"
        }
      ],
      "stateMutability": "view",
      "type": "function"
    },
    {
      "inputs": [],
      "name": "owner",
      "outputs": [
        {
          "internalType": "address",
          "name": "",
          "type": "address"
        }
      ],
      "stateMutability": "view",
      "type": "function"
    },
    {
      "inputs": [],
      "name": "renounceOwnership",
      "outputs": [],
      "stateMutability": "nonpayable",
      "type": "function"
    },
    {
      "inputs": [
        {
          "internalType": "address",
          "name": "receiver",
          "type": "address"
        },
        {
          "internalType": "uint256",
          "name": "terminationFrom",
          "type": "uint256"
        }
      ],
      "name": "terminate",
      "outputs": [],
      "stateMutability": "nonpayable",
      "type": "function"
    },
    {
      "inputs": [
        {
          "internalType": "address",
          "name": "newOwner",
          "type": "address"
        }
      ],
      "name": "transferOwnership",
      "outputs": [],
      "stateMutability": "nonpayable",
      "type": "function"
    }
  ],
  "transactionHash": "0x12bf6f9db316b6bf293db625063e7c628bb13ddb56d5ecc1540d332891b3116f",
  "args": [
    "0x8198f5d8F8CfFE8f9C413d98a0A55aEB8ab9FbB7",
    "0x70997970C51812dc3A010C7d01b50e0d17dc79C8"
  ],
  "numDeployments": 1,
  "solcInputHash": "ec7d1521be83ebfef785f4c2459d0850",
  "bytecode": "0x608060405234801561001057600080fd5b5060405161129a38038061129a83398101604081905261002f916100d1565b61003833610069565b600180546001600160a01b039384166001600160a01b0319918216179091556002805492909316911617905561010b565b600080546001600160a01b038381166001600160a01b0319831681178455604051919092169283917f8be0079c531659141344cd1fd0a4f28419497f9722a3daafe3b4186f6b6457e09190a35050565b6001600160a01b03811681146100ce57600080fd5b50565b600080604083850312156100e457600080fd5b82516100ef816100b9565b6020840151909250610100816100b9565b809150509250929050565b6111808061011a6000396000f3fe608060405234801561001057600080fd5b50600436106101005760003560e01c8063a604b44e11610097578063f275684d11610066578063f275684d14610247578063f2fde38b1461025a578063f458b5e61461026d578063f6d78b651461028d57600080fd5b8063a604b44e1461019f578063b9fea7d0146101a7578063bf1e799b146101ba578063ccc9305d1461023457600080fd5b8063379607f5116100d3578063379607f5146101695780634958e1a11461017e578063715018a6146101865780638da5cb5b1461018e57600080fd5b806303f7a68c1461010557806306def802146101205780630a463e1c1461013357806310fe9ae814610158575b600080fd5b61010d6102a0565b6040519081526020015b60405180910390f35b61010d61012e366004610dfd565b610320565b6002546001600160a01b03165b6040516001600160a01b039091168152602001610117565b6001546001600160a01b0316610140565b61017c610177366004610e18565b61040d565b005b61010d610602565b61017c61060e565b6000546001600160a01b0316610140565b61010d610622565b61017c6101b5366004610dfd565b610688565b6101cd6101c8366004610dfd565b6106e8565b604051610117919081516001600160a01b031681526020808301519082015260408083015190820152606080830151908201526080808301519082015260a0828101519082015260c0808301519082015260e0918201511515918101919091526101000190565b61017c610242366004610e31565b6107b8565b61017c610255366004610ecb565b61085f565b61017c610268366004610dfd565b610949565b61028061027b366004610fba565b6109c2565b6040516101179190610fdc565b61017c61029b366004611029565b610abb565b600154600254604051636eb1769f60e11b81526001600160a01b039182166004820152306024820152600092919091169063dd62ed3e90604401602060405180830381865afa1580156102f7573d6000803e3d6000fd5b505050506040513d601f19601f8201168201806040525081019061031b919061106b565b905090565b6001600160a01b0381166000908152600560205260408120600481015460038201544292918491610351919061109a565b600783015490915060ff16801561036c575081600601548310155b1561037c57506000949350505050565b8083101561038f57506000949350505050565b600582015461039e908261109a565b83106103c157816002015482600101546103b891906110ad565b95945050505050565b60006103cd82856110ad565b9050600083600501548285600101546103e691906110c0565b6103f091906110d7565b905083600201548161040291906110ad565b979650505050505050565b336000818152600560205260409020546001600160a01b0316146104445760405163502ffa3f60e11b815260040160405180910390fd5b80600003610465576040516360640efd60e11b815260040160405180910390fd5b336000908152600560205260409020600781015460ff16801561048c575080600601544210155b156104be576006810154604051630c74616360e11b815233600482015260248101919091526044015b60405180910390fd5b60006104c933610320565b9050808311156104f65760405163271fb30560e21b815260048101849052602481018290526044016104b5565b8282600201600082825461050a919061109a565b90915550506001546002546040516323b872dd60e01b81526001600160a01b039182166004820152336024820152604481018690529116906323b872dd906064016020604051808303816000875af115801561056a573d6000803e3d6000fd5b505050506040513d601f19601f8201168201806040525081019061058e91906110f9565b6105c75760025460405163190eecf360e31b81526001600160a01b039091166004820152336024820152604481018490526064016104b5565b60405183815233907f896e034966eaaf1adc54acc0f257056febbd300c9e47182cf761982cf1f5e430906020015b60405180910390a2505050565b600061031b6003610ad7565b610616610ae1565b6106206000610b3b565b565b600080805b6106316003610ad7565b8110156106825760056000610647600384610b8b565b6001600160a01b0316815260208101919091526040016000206001015461066e908361109a565b91508061067a8161111b565b915050610627565b50919050565b610690610ae1565b6001600160a01b03811660008181526005602052604080822060078101805460ff191690556006810183905590519092917f6f64e2246d8a5cd8d55ea99199b39ac605693722f899ac2405b7c54bae3eda7e91a25050565b61073b60405180610100016040528060006001600160a01b031681526020016000815260200160008152602001600081526020016000815260200160008152602001600081526020016000151581525090565b506001600160a01b0390811660009081526005602081815260409283902083516101008101855281549095168552600181015491850191909152600281015492840192909252600382015460608401526004820154608084015281015460a0830152600681015460c08301526007015460ff16151560e082015290565b6107c0610ae1565b6001600160a01b03821660009081526005602052604090206003810154821161080c5760038101546040516349d7e3e960e01b81526104b5918491600401918252602082015260400190565b6006810182905560078101805460ff191660011790556040516001600160a01b038416907f96a3db8ae0226bd6c5e331039c8dc9bad983d211de42680d9775dfbddb1b71a9906105f59085815260200190565b610867610ae1565b80516000036108895760405163d77fbd1d60e01b815260040160405180910390fd5b60005b8151811015610945576109338282815181106108aa576108aa611134565b6020026020010151600001518383815181106108c8576108c8611134565b6020026020010151602001518484815181106108e6576108e6611134565b60200260200101516040015185858151811061090457610904611134565b60200260200101516060015186868151811061092257610922611134565b602002602001015160800151610b9e565b8061093d8161111b565b91505061088c565b5050565b610951610ae1565b6001600160a01b0381166109b65760405162461bcd60e51b815260206004820152602660248201527f4f776e61626c653a206e6577206f776e657220697320746865207a65726f206160448201526564647265737360d01b60648201526084016104b5565b6109bf81610b3b565b50565b606060006109d06003610ad7565b90508084106109ef575050604080516000815260208101909152610ab5565b806109fa848661109a565b1115610a0d57610a0a84826110ad565b92505b60008367ffffffffffffffff811115610a2857610a28610e5b565b604051908082528060200260200182016040528015610a51578160200160208202803683370190505b50905060005b84811015610ab057610a74610a6c828861109a565b600390610b8b565b828281518110610a8657610a86611134565b6001600160a01b039092166020928302919091019091015280610aa88161111b565b915050610a57565b509150505b92915050565b610ac3610ae1565b610ad08585858585610b9e565b5050505050565b6000610ab5825490565b6000546001600160a01b031633146106205760405162461bcd60e51b815260206004820181905260248201527f4f776e61626c653a2063616c6c6572206973206e6f7420746865206f776e657260448201526064016104b5565b600080546001600160a01b038381166001600160a01b0319831681178455604051919092169283917f8be0079c531659141344cd1fd0a4f28419497f9722a3daafe3b4186f6b6457e09190a35050565b6000610b978383610d36565b9392505050565b610ba6610ae1565b6001600160a01b038516610bcd5760405163502ffa3f60e11b815260040160405180910390fd5b83600003610bee576040516307e7e9a960e21b815260040160405180910390fd5b610bf9600386610d60565b15610c2157604051620118fb60e11b81526001600160a01b03861660048201526024016104b5565b60408051610100810182526001600160a01b0387811680835260208084018981526000858701818152606087018b8152608088018b815260a089018b815260c08a0185815260e08b018681529886526005978890529a909420985189546001600160a01b03191698169790971788559251600188015551600287015590516003808701919091559351600486015551908401559251600683015591516007909101805460ff1916911515919091179055610cdb9086610d82565b506040805185815260208101859052908101839052606081018290526001600160a01b038616907f9f7f47e73fd629c582be438a08553de4dc70f4b96c2735ad7ff9ec4314096e859060800160405180910390a25050505050565b6000826000018281548110610d4d57610d4d611134565b9060005260206000200154905092915050565b6001600160a01b03811660009081526001830160205260408120541515610b97565b6000610b97836001600160a01b0384166000818152600183016020526040812054610dd957508154600181810184556000848152602080822090930184905584548482528286019093526040902091909155610ab5565b506000610ab5565b80356001600160a01b0381168114610df857600080fd5b919050565b600060208284031215610e0f57600080fd5b610b9782610de1565b600060208284031215610e2a57600080fd5b5035919050565b60008060408385031215610e4457600080fd5b610e4d83610de1565b946020939093013593505050565b634e487b7160e01b600052604160045260246000fd5b60405160a0810167ffffffffffffffff81118282101715610e9457610e94610e5b565b60405290565b604051601f8201601f1916810167ffffffffffffffff81118282101715610ec357610ec3610e5b565b604052919050565b60006020808385031215610ede57600080fd5b823567ffffffffffffffff80821115610ef657600080fd5b818501915085601f830112610f0a57600080fd5b813581811115610f1c57610f1c610e5b565b610f2a848260051b01610e9a565b818152848101925060a0918202840185019188831115610f4957600080fd5b938501935b82851015610fae5780858a031215610f665760008081fd5b610f6e610e71565b610f7786610de1565b8152858701358782015260408087013590820152606080870135908201526080808701359082015284529384019392850192610f4e565b50979650505050505050565b60008060408385031215610fcd57600080fd5b50508035926020909101359150565b6020808252825182820181905260009190848201906040850190845b8181101561101d5783516001600160a01b031683529284019291840191600101610ff8565b50909695505050505050565b600080600080600060a0868803121561104157600080fd5b61104a86610de1565b97602087013597506040870135966060810135965060800135945092505050565b60006020828403121561107d57600080fd5b5051919050565b634e487b7160e01b600052601160045260246000fd5b80820180821115610ab557610ab5611084565b81810381811115610ab557610ab5611084565b8082028115828204841417610ab557610ab5611084565b6000826110f457634e487b7160e01b600052601260045260246000fd5b500490565b60006020828403121561110b57600080fd5b81518015158114610b9757600080fd5b60006001820161112d5761112d611084565b5060010190565b634e487b7160e01b600052603260045260246000fdfea2646970667358221220e4a9cc70a6f3dbc6deb25b3366a5fad18892fe595acc8dc92c1a36059089f56b64736f6c63430008130033",
  "devdoc": {
    "errors": {
      "AmountExceedsWithdrawableAllowance(uint256,uint256)": [
        {
          "params": {
            "amount": "Amount of tokens to be claimed.",
            "claimable": "Amount of tokens that can be claimed."
          }
        }
      ],
      "ReceiverAlreadyHasATimelock(address)": [
        {
          "params": {
            "receiver": "Address of the receiver."
          }
        }
      ],
      "TerminationTimeMustBeAfterLockStart(uint256,uint256)": [
        {
          "params": {
            "lockFrom": "Timestamp from which tokens will be locked.",
            "terminationFrom": "Timestamp from which tokens will be terminated."
          }
        }
      ],
      "TimelockIsTerminated(address,uint256)": [
        {
          "params": {
            "terminationFrom": "Timestamp from which tokens will be terminated."
          }
        }
      ],
      "TokenTransferFailed(address,address,uint256)": [
        {
          "params": {
            "amount": "Amount of tokens transferred.",
            "receiver": "Address of the receiver.",
            "tokenPool": "Address of the token pool."
          }
        }
      ]
    },
    "events": {
      "TimelockCreated(address,uint256,uint256,uint256,uint256)": {
        "params": {
          "cliffDuration": "Cliff time in seconds (6 months default).",
          "receiver": "Address of the receiver.",
          "totalAmount": "Total amount of tokens to be vested.",
          "vestingDuration": "Vesting duration in seconds (18/24 months)."
        }
      },
      "TimelockDeterminated(address)": {
        "params": {
          "receiver": "Address of the receiver."
        }
      },
      "TimelockTerminated(address,uint256)": {
        "params": {
          "receiver": "Address of the receiver.",
          "terminationFrom": "Timestamp from which tokens will be terminated."
        }
      },
      "TokensClaimed(address,uint256)": {
        "params": {
          "amount": "Amount of tokens claimed.",
          "receiver": "Address of the claimer."
        }
      }
    },
    "kind": "dev",
    "methods": {
      "addTimelock(address,uint256,uint256,uint256,uint256)": {
        "params": {
          "cliffDuration": "Cliff time in seconds (6 months default).",
          "receiver": "Address of the receiver.",
          "timelockFrom": "Timestamp from which the timelock will start.",
          "totalAmount": "Total amount of tokens to be vested.",
          "vestingDuration": "Vesting duration in seconds (18/24 months)."
        }
      },
      "addTimelockBatch((address,uint256,uint256,uint256,uint256)[])": {
        "params": {
          "receivers": "Array of receivers."
        }
      },
      "claim(uint256)": {
        "params": {
          "amount": "Amount of tokens to be claimed."
        }
      },
      "determinate(address)": {
        "params": {
          "receiver": "Address of the receiver."
        }
      },
      "getClaimableBalance(address)": {
        "params": {
          "receiver": "Address of the receiver."
        }
      },
      "getTimelock(address)": {
        "params": {
          "receiver": "Address of the receiver."
        }
      },
      "getTimelockReceivers(uint256,uint256)": {
        "params": {
          "limit": "Limit of receivers to be returned.",
          "offset": "Offset from which receivers will be returned."
        }
      },
      "owner()": {
        "details": "Returns the address of the current owner."
      },
      "renounceOwnership()": {
        "details": "Leaves the contract without owner. It will not be possible to call `onlyOwner` functions. Can only be called by the current owner. NOTE: Renouncing ownership will leave the contract without an owner, thereby disabling any functionality that is only available to the owner."
      },
      "terminate(address,uint256)": {
        "params": {
          "receiver": "Address of the receiver.",
          "terminationFrom": "Timestamp from which tokens will be terminated."
        }
      },
      "transferOwnership(address)": {
        "details": "Transfers ownership of the contract to a new account (`newOwner`). Can only be called by the current owner."
      }
    },
    "stateVariables": {
      "_token": {
        "details": "Link to IQT repository: https://github.com/iqlabsorg/iqt-eth"
      }
    },
    "version": 1
  },
  "userdoc": {
    "errors": {
      "AmountExceedsWithdrawableAllowance(uint256,uint256)": [
        {
          "notice": "Reverts if amount exceeds vesting allowance."
        }
      ],
      "CliffPeriodNotEnded(uint256,uint256)": [
        {
          "notice": "Reverts if cliff period has not ended."
        }
      ],
      "EmptyReceiversArray()": [
        {
          "notice": "Reverts if empty receivers array is passed."
        }
      ],
      "InvalidReceiverAddress()": [
        {
          "notice": "Reverts if invalid receiver address is passed."
        }
      ],
      "InvalidTimelockAmount()": [
        {
          "notice": "Reverts if invalid timelock amount is passed."
        }
      ],
      "ReceiverAlreadyHasATimelock(address)": [
        {
          "notice": "Reverts if receiver already has a timelock."
        }
      ],
      "TerminationTimeMustBeAfterLockStart(uint256,uint256)": [
        {
          "notice": "Reverts if termination time is before lock start."
        }
      ],
      "TimelockIsTerminated(address,uint256)": [
        {
          "notice": "Reverts if timelock is terminated"
        }
      ],
      "TokenTransferFailed(address,address,uint256)": [
        {
          "notice": "Reverts if token transfer failed."
        }
      ],
      "ZeroAllocation()": [
        {
          "notice": "Reverts if vesting period has not started."
        }
      ],
      "ZeroClaimAmount()": [
        {
          "notice": "Reverts if zero claim amount is passed."
        }
      ]
    },
    "events": {
      "TimelockCreated(address,uint256,uint256,uint256,uint256)": {
        "notice": "Emits when timelock is created."
      },
      "TimelockDeterminated(address)": {
        "notice": "Emits when timelock is determinated."
      },
      "TimelockTerminated(address,uint256)": {
        "notice": "Emits when timelock is terminated."
      },
      "TokensClaimed(address,uint256)": {
        "notice": "Emits when tokens are claimed."
      }
    },
    "kind": "user",
    "methods": {
      "addTimelock(address,uint256,uint256,uint256,uint256)": {
        "notice": "Creates timelock for token receiver."
      },
      "addTimelockBatch((address,uint256,uint256,uint256,uint256)[])": {
        "notice": "Creates timelock for token receivers in a batch mode."
      },
      "claim(uint256)": {
        "notice": "Claims tokens for the receiver."
      },
      "constructor": {
        "notice": "Reverts if the timelock does not exist."
      },
      "determinate(address)": {
        "notice": "Determinates timelock for the receiver."
      },
      "getClaimableBalance(address)": {
        "notice": "Returns the amount of tokens that are currently allowed for claim."
      },
      "getCurrentAllowance()": {
        "notice": "Returns the amount of tokens that are currently allowed for transfer."
      },
      "getTimelock(address)": {
        "notice": "Returns the timelock data."
      },
      "getTimelockReceivers(uint256,uint256)": {
        "notice": "Returns the array of timelock receivers."
      },
      "getTimelockReceiversAmount()": {
        "notice": "Returns the amount of timelock receivers."
      },
      "getTokenAddress()": {
        "notice": "Returns the address of token."
      },
      "getTotalTokensLocked()": {
        "notice": "Returns the amount of tokens that are currently locked."
      },
      "getVestingPoolAddress()": {
        "notice": "Returns the address of vesting pool."
      },
      "terminate(address,uint256)": {
        "notice": "Terminates timelock for the receiver."
      }
    },
    "version": 1
  },
  "storageLayout": {
    "storage": [
      {
        "astId": 7,
        "contract": "contracts/timelock/BatchTimelock.sol:BatchTimelock",
        "label": "_owner",
        "offset": 0,
        "slot": "0",
        "type": "t_address"
      },
      {
        "astId": 849,
        "contract": "contracts/timelock/BatchTimelock.sol:BatchTimelock",
        "label": "_token",
        "offset": 0,
        "slot": "1",
        "type": "t_contract(IERC20)190"
      },
      {
        "astId": 852,
        "contract": "contracts/timelock/BatchTimelock.sol:BatchTimelock",
        "label": "_vestingPool",
        "offset": 0,
        "slot": "2",
        "type": "t_address"
      },
      {
        "astId": 856,
        "contract": "contracts/timelock/BatchTimelock.sol:BatchTimelock",
        "label": "_allReceivers",
        "offset": 0,
        "slot": "3",
        "type": "t_struct(AddressSet)538_storage"
      },
      {
        "astId": 862,
        "contract": "contracts/timelock/BatchTimelock.sol:BatchTimelock",
        "label": "_timelocks",
        "offset": 0,
        "slot": "5",
        "type": "t_mapping(t_address,t_struct(Timelock)1552_storage)"
      }
    ],
    "types": {
      "t_address": {
        "encoding": "inplace",
        "label": "address",
        "numberOfBytes": "20"
      },
      "t_array(t_bytes32)dyn_storage": {
        "base": "t_bytes32",
        "encoding": "dynamic_array",
        "label": "bytes32[]",
        "numberOfBytes": "32"
      },
      "t_bool": {
        "encoding": "inplace",
        "label": "bool",
        "numberOfBytes": "1"
      },
      "t_bytes32": {
        "encoding": "inplace",
        "label": "bytes32",
        "numberOfBytes": "32"
      },
      "t_contract(IERC20)190": {
        "encoding": "inplace",
        "label": "contract IERC20",
        "numberOfBytes": "20"
      },
      "t_mapping(t_address,t_struct(Timelock)1552_storage)": {
        "encoding": "mapping",
        "key": "t_address",
        "label": "mapping(address => struct IBatchTimelock.Timelock)",
        "numberOfBytes": "32",
        "value": "t_struct(Timelock)1552_storage"
      },
      "t_mapping(t_bytes32,t_uint256)": {
        "encoding": "mapping",
        "key": "t_bytes32",
        "label": "mapping(bytes32 => uint256)",
        "numberOfBytes": "32",
        "value": "t_uint256"
      },
      "t_struct(AddressSet)538_storage": {
        "encoding": "inplace",
        "label": "struct EnumerableSet.AddressSet",
        "members": [
          {
            "astId": 537,
            "contract": "contracts/timelock/BatchTimelock.sol:BatchTimelock",
            "label": "_inner",
            "offset": 0,
            "slot": "0",
            "type": "t_struct(Set)223_storage"
          }
        ],
        "numberOfBytes": "64"
      },
      "t_struct(Set)223_storage": {
        "encoding": "inplace",
        "label": "struct EnumerableSet.Set",
        "members": [
          {
            "astId": 218,
            "contract": "contracts/timelock/BatchTimelock.sol:BatchTimelock",
            "label": "_values",
            "offset": 0,
            "slot": "0",
            "type": "t_array(t_bytes32)dyn_storage"
          },
          {
            "astId": 222,
            "contract": "contracts/timelock/BatchTimelock.sol:BatchTimelock",
            "label": "_indexes",
            "offset": 0,
            "slot": "1",
            "type": "t_mapping(t_bytes32,t_uint256)"
          }
        ],
        "numberOfBytes": "64"
      },
      "t_struct(Timelock)1552_storage": {
        "encoding": "inplace",
        "label": "struct IBatchTimelock.Timelock",
        "members": [
          {
            "astId": 1537,
            "contract": "contracts/timelock/BatchTimelock.sol:BatchTimelock",
            "label": "receiver",
            "offset": 0,
            "slot": "0",
            "type": "t_address"
          },
          {
            "astId": 1539,
            "contract": "contracts/timelock/BatchTimelock.sol:BatchTimelock",
            "label": "totalAmount",
            "offset": 0,
            "slot": "1",
            "type": "t_uint256"
          },
          {
            "astId": 1541,
            "contract": "contracts/timelock/BatchTimelock.sol:BatchTimelock",
            "label": "releasedAmount",
            "offset": 0,
            "slot": "2",
            "type": "t_uint256"
          },
          {
            "astId": 1543,
            "contract": "contracts/timelock/BatchTimelock.sol:BatchTimelock",
            "label": "timelockFrom",
            "offset": 0,
            "slot": "3",
            "type": "t_uint256"
          },
          {
            "astId": 1545,
            "contract": "contracts/timelock/BatchTimelock.sol:BatchTimelock",
            "label": "cliffDuration",
            "offset": 0,
            "slot": "4",
            "type": "t_uint256"
          },
          {
            "astId": 1547,
            "contract": "contracts/timelock/BatchTimelock.sol:BatchTimelock",
            "label": "vestingDuration",
            "offset": 0,
            "slot": "5",
            "type": "t_uint256"
          },
          {
            "astId": 1549,
            "contract": "contracts/timelock/BatchTimelock.sol:BatchTimelock",
            "label": "terminationFrom",
            "offset": 0,
            "slot": "6",
            "type": "t_uint256"
          },
          {
            "astId": 1551,
            "contract": "contracts/timelock/BatchTimelock.sol:BatchTimelock",
            "label": "isTerminated",
            "offset": 0,
            "slot": "7",
            "type": "t_bool"
          }
        ],
        "numberOfBytes": "256"
      },
      "t_uint256": {
        "encoding": "inplace",
        "label": "uint256",
        "numberOfBytes": "32"
      }
    }
  }
}