{
  "address": "0xB2b580ce436E6F77A5713D80887e14788Ef49c9A",
  "abi": [
    {
      "inputs": [
        {
          "internalType": "contract IERC20",
          "name": "token",
          "type": "address"
        },
        {
          "internalType": "address",
          "name": "vestingPool",
          "type": "address"
        }
      ],
      "stateMutability": "nonpayable",
      "type": "constructor"
    },
    {
      "inputs": [
        {
          "internalType": "uint256",
          "name": "amount",
          "type": "uint256"
        },
        {
          "internalType": "uint256",
          "name": "claimable",
          "type": "uint256"
        }
      ],
      "name": "AmountExceedsWithdrawableAllowance",
      "type": "error"
    },
    {
      "inputs": [],
      "name": "CallerIsNotATerminationAdmin",
      "type": "error"
    },
    {
      "inputs": [],
      "name": "CallerIsNotATimelockCreator",
      "type": "error"
    },
    {
      "inputs": [
        {
          "internalType": "uint256",
          "name": "timeNow",
          "type": "uint256"
        },
        {
          "internalType": "uint256",
          "name": "cliffEndsAt",
          "type": "uint256"
        }
      ],
      "name": "CliffPeriodNotEnded",
      "type": "error"
    },
    {
      "inputs": [],
      "name": "EmptyReceiversArray",
      "type": "error"
    },
    {
      "inputs": [],
      "name": "InvalidReceiverAddress",
      "type": "error"
    },
    {
      "inputs": [],
      "name": "InvalidTimelockAmount",
      "type": "error"
    },
    {
      "inputs": [
        {
          "internalType": "address",
          "name": "receiver",
          "type": "address"
        }
      ],
      "name": "ReceiverAlreadyHasATimelock",
      "type": "error"
    },
    {
      "inputs": [
        {
          "internalType": "uint256",
          "name": "terminationFrom",
          "type": "uint256"
        },
        {
          "internalType": "uint256",
          "name": "lockFrom",
          "type": "uint256"
        }
      ],
      "name": "TerminationTimeMustBeAfterLockStart",
      "type": "error"
    },
    {
      "inputs": [
        {
          "internalType": "address",
          "name": "tokenPool",
          "type": "address"
        },
        {
          "internalType": "address",
          "name": "receiver",
          "type": "address"
        },
        {
          "internalType": "uint256",
          "name": "amount",
          "type": "uint256"
        }
      ],
      "name": "TokenTransferFailed",
      "type": "error"
    },
    {
      "inputs": [],
      "name": "ZeroAllocation",
      "type": "error"
    },
    {
      "inputs": [],
      "name": "ZeroClaimAmount",
      "type": "error"
    },
    {
      "anonymous": false,
      "inputs": [
        {
          "indexed": true,
          "internalType": "bytes32",
          "name": "role",
          "type": "bytes32"
        },
        {
          "indexed": true,
          "internalType": "bytes32",
          "name": "previousAdminRole",
          "type": "bytes32"
        },
        {
          "indexed": true,
          "internalType": "bytes32",
          "name": "newAdminRole",
          "type": "bytes32"
        }
      ],
      "name": "RoleAdminChanged",
      "type": "event"
    },
    {
      "anonymous": false,
      "inputs": [
        {
          "indexed": true,
          "internalType": "bytes32",
          "name": "role",
          "type": "bytes32"
        },
        {
          "indexed": true,
          "internalType": "address",
          "name": "account",
          "type": "address"
        },
        {
          "indexed": true,
          "internalType": "address",
          "name": "sender",
          "type": "address"
        }
      ],
      "name": "RoleGranted",
      "type": "event"
    },
    {
      "anonymous": false,
      "inputs": [
        {
          "indexed": true,
          "internalType": "bytes32",
          "name": "role",
          "type": "bytes32"
        },
        {
          "indexed": true,
          "internalType": "address",
          "name": "account",
          "type": "address"
        },
        {
          "indexed": true,
          "internalType": "address",
          "name": "sender",
          "type": "address"
        }
      ],
      "name": "RoleRevoked",
      "type": "event"
    },
    {
      "anonymous": false,
      "inputs": [
        {
          "indexed": true,
          "internalType": "address",
          "name": "receiver",
          "type": "address"
        },
        {
          "indexed": false,
          "internalType": "uint256",
          "name": "totalAmount",
          "type": "uint256"
        },
        {
          "indexed": false,
          "internalType": "uint256",
          "name": "timelockFrom",
          "type": "uint256"
        },
        {
          "indexed": false,
          "internalType": "uint256",
          "name": "cliffDuration",
          "type": "uint256"
        },
        {
          "indexed": false,
          "internalType": "uint256",
          "name": "vestingDuration",
          "type": "uint256"
        }
      ],
      "name": "TimelockCreated",
      "type": "event"
    },
    {
      "anonymous": false,
      "inputs": [
        {
          "indexed": true,
          "internalType": "address",
          "name": "receiver",
          "type": "address"
        }
      ],
      "name": "TimelockDeterminated",
      "type": "event"
    },
    {
      "anonymous": false,
      "inputs": [
        {
          "indexed": true,
          "internalType": "address",
          "name": "receiver",
          "type": "address"
        },
        {
          "indexed": false,
          "internalType": "uint256",
          "name": "terminationFrom",
          "type": "uint256"
        }
      ],
      "name": "TimelockTerminated",
      "type": "event"
    },
    {
      "anonymous": false,
      "inputs": [
        {
          "indexed": true,
          "internalType": "address",
          "name": "receiver",
          "type": "address"
        },
        {
          "indexed": false,
          "internalType": "uint256",
          "name": "amount",
          "type": "uint256"
        }
      ],
      "name": "TokensClaimed",
      "type": "event"
    },
    {
      "inputs": [],
      "name": "DEFAULT_ADMIN_ROLE",
      "outputs": [
        {
          "internalType": "bytes32",
          "name": "",
          "type": "bytes32"
        }
      ],
      "stateMutability": "view",
      "type": "function"
    },
    {
      "inputs": [
        {
          "internalType": "address",
          "name": "receiver",
          "type": "address"
        },
        {
          "internalType": "uint256",
          "name": "totalAmount",
          "type": "uint256"
        },
        {
          "internalType": "uint256",
          "name": "timelockFrom",
          "type": "uint256"
        },
        {
          "internalType": "uint256",
          "name": "cliffDuration",
          "type": "uint256"
        },
        {
          "internalType": "uint256",
          "name": "vestingDuration",
          "type": "uint256"
        }
      ],
      "name": "addTimelock",
      "outputs": [],
      "stateMutability": "nonpayable",
      "type": "function"
    },
    {
      "inputs": [
        {
          "components": [
            {
              "internalType": "address",
              "name": "receiver",
              "type": "address"
            },
            {
              "internalType": "uint256",
              "name": "totalAmount",
              "type": "uint256"
            },
            {
              "internalType": "uint256",
              "name": "timelockFrom",
              "type": "uint256"
            },
            {
              "internalType": "uint256",
              "name": "cliffDuration",
              "type": "uint256"
            },
            {
              "internalType": "uint256",
              "name": "vestingDuration",
              "type": "uint256"
            }
          ],
          "internalType": "struct IBatchTimelock.Receiver[]",
          "name": "receivers",
          "type": "tuple[]"
        }
      ],
      "name": "addTimelockBatch",
      "outputs": [],
      "stateMutability": "nonpayable",
      "type": "function"
    },
    {
      "inputs": [
        {
          "internalType": "uint256",
          "name": "amount",
          "type": "uint256"
        }
      ],
      "name": "claim",
      "outputs": [],
      "stateMutability": "nonpayable",
      "type": "function"
    },
    {
      "inputs": [
        {
          "internalType": "address",
          "name": "receiver",
          "type": "address"
        }
      ],
      "name": "determinate",
      "outputs": [],
      "stateMutability": "nonpayable",
      "type": "function"
    },
    {
      "inputs": [
        {
          "internalType": "address",
          "name": "receiver",
          "type": "address"
        }
      ],
      "name": "getClaimableBalance",
      "outputs": [
        {
          "internalType": "uint256",
          "name": "",
          "type": "uint256"
        }
      ],
      "stateMutability": "view",
      "type": "function"
    },
    {
      "inputs": [],
      "name": "getCurrentAllowance",
      "outputs": [
        {
          "internalType": "uint256",
          "name": "",
          "type": "uint256"
        }
      ],
      "stateMutability": "view",
      "type": "function"
    },
    {
      "inputs": [
        {
          "internalType": "bytes32",
          "name": "role",
          "type": "bytes32"
        }
      ],
      "name": "getRoleAdmin",
      "outputs": [
        {
          "internalType": "bytes32",
          "name": "",
          "type": "bytes32"
        }
      ],
      "stateMutability": "view",
      "type": "function"
    },
    {
      "inputs": [
        {
          "internalType": "address",
          "name": "receiver",
          "type": "address"
        }
      ],
      "name": "getTimelock",
      "outputs": [
        {
          "components": [
            {
              "internalType": "address",
              "name": "receiver",
              "type": "address"
            },
            {
              "internalType": "uint256",
              "name": "totalAmount",
              "type": "uint256"
            },
            {
              "internalType": "uint256",
              "name": "releasedAmount",
              "type": "uint256"
            },
            {
              "internalType": "uint256",
              "name": "timelockFrom",
              "type": "uint256"
            },
            {
              "internalType": "uint256",
              "name": "cliffDuration",
              "type": "uint256"
            },
            {
              "internalType": "uint256",
              "name": "vestingDuration",
              "type": "uint256"
            },
            {
              "internalType": "uint256",
              "name": "terminationFrom",
              "type": "uint256"
            },
            {
              "internalType": "bool",
              "name": "isTerminated",
              "type": "bool"
            }
          ],
          "internalType": "struct IBatchTimelock.Timelock",
          "name": "",
          "type": "tuple"
        }
      ],
      "stateMutability": "view",
      "type": "function"
    },
    {
      "inputs": [
        {
          "internalType": "uint256",
          "name": "offset",
          "type": "uint256"
        },
        {
          "internalType": "uint256",
          "name": "limit",
          "type": "uint256"
        }
      ],
      "name": "getTimelockReceivers",
      "outputs": [
        {
          "internalType": "address[]",
          "name": "",
          "type": "address[]"
        }
      ],
      "stateMutability": "view",
      "type": "function"
    },
    {
      "inputs": [],
      "name": "getTimelockReceiversAmount",
      "outputs": [
        {
          "internalType": "uint256",
          "name": "",
          "type": "uint256"
        }
      ],
      "stateMutability": "view",
      "type": "function"
    },
    {
      "inputs": [],
      "name": "getTokenAddress",
      "outputs": [
        {
          "internalType": "address",
          "name": "",
          "type": "address"
        }
      ],
      "stateMutability": "view",
      "type": "function"
    },
    {
      "inputs": [],
      "name": "getTotalTokensLocked",
      "outputs": [
        {
          "internalType": "uint256",
          "name": "",
          "type": "uint256"
        }
      ],
      "stateMutability": "view",
      "type": "function"
    },
    {
      "inputs": [],
      "name": "getVestingPoolAddress",
      "outputs": [
        {
          "internalType": "address",
          "name": "",
          "type": "address"
        }
      ],
      "stateMutability": "view",
      "type": "function"
    },
    {
      "inputs": [
        {
          "internalType": "bytes32",
          "name": "role",
          "type": "bytes32"
        },
        {
          "internalType": "address",
          "name": "account",
          "type": "address"
        }
      ],
      "name": "grantRole",
      "outputs": [],
      "stateMutability": "nonpayable",
      "type": "function"
    },
    {
      "inputs": [
        {
          "internalType": "bytes32",
          "name": "role",
          "type": "bytes32"
        },
        {
          "internalType": "address",
          "name": "account",
          "type": "address"
        }
      ],
      "name": "hasRole",
      "outputs": [
        {
          "internalType": "bool",
          "name": "",
          "type": "bool"
        }
      ],
      "stateMutability": "view",
      "type": "function"
    },
    {
      "inputs": [
        {
          "internalType": "bytes32",
          "name": "role",
          "type": "bytes32"
        },
        {
          "internalType": "address",
          "name": "account",
          "type": "address"
        }
      ],
      "name": "renounceRole",
      "outputs": [],
      "stateMutability": "nonpayable",
      "type": "function"
    },
    {
      "inputs": [
        {
          "internalType": "bytes32",
          "name": "role",
          "type": "bytes32"
        },
        {
          "internalType": "address",
          "name": "account",
          "type": "address"
        }
      ],
      "name": "revokeRole",
      "outputs": [],
      "stateMutability": "nonpayable",
      "type": "function"
    },
    {
      "inputs": [
        {
          "internalType": "bytes4",
          "name": "interfaceId",
          "type": "bytes4"
        }
      ],
      "name": "supportsInterface",
      "outputs": [
        {
          "internalType": "bool",
          "name": "",
          "type": "bool"
        }
      ],
      "stateMutability": "view",
      "type": "function"
    },
    {
      "inputs": [
        {
          "internalType": "address",
          "name": "receiver",
          "type": "address"
        },
        {
          "internalType": "uint256",
          "name": "terminationFrom",
          "type": "uint256"
        }
      ],
      "name": "terminate",
      "outputs": [],
      "stateMutability": "nonpayable",
      "type": "function"
    }
  ],
  "transactionHash": "0x03152dd730beea1a166a840ed5927362caf849e4afd071abcd2c846bd4c9a9b0",
  "args": [
    "0xe1Fd27F4390DcBE165f4D60DBF821e4B9Bb02dEd",
    "0x70997970C51812dc3A010C7d01b50e0d17dc79C8"
  ],
  "numDeployments": 1,
  "solcInputHash": "fca8a5c9a382b425fa17378b61db9fe4",
  "bytecode": "0x60806040523480156200001157600080fd5b50604051620019d4380380620019d48339810160408190526200003491620001a1565b600180546001600160a01b038085166001600160a01b0319928316179092556002805492841692909116919091179055620000786000620000723390565b620000d8565b620000a47f654cf90216eecc7de4eb1e1f3b7b3cf7e630c873f6cf3ff18753f0093c95820733620000d8565b620000d07f88df8672b6a816cafb7f0f91f61a06a8a1f7c9088af1db2285870c32fed77b3933620000d8565b5050620001e0565b620000e48282620000e8565b5050565b6000828152602081815260408083206001600160a01b038516845290915290205460ff16620000e4576000828152602081815260408083206001600160a01b03851684529091529020805460ff19166001179055620001443390565b6001600160a01b0316816001600160a01b0316837f2f8788117e7eff1d82e926ec794901d17c78024a50270940304540a733656f0d60405160405180910390a45050565b6001600160a01b03811681146200019e57600080fd5b50565b60008060408385031215620001b557600080fd5b8251620001c28162000188565b6020840151909250620001d58162000188565b809150509250929050565b6117e480620001f06000396000f3fe608060405234801561001057600080fd5b506004361061012c5760003560e01c806391d14854116100ad578063ccc9305d11610071578063ccc9305d146102ce578063d547741f146102e1578063f275684d146102f4578063f458b5e614610307578063f6d78b651461032757600080fd5b806391d148541461021e578063a217fddf14610231578063a604b44e14610239578063b9fea7d014610241578063bf1e799b1461025457600080fd5b8063248a9ca3116100f4578063248a9ca3146101b85780632f2ff15d146101db57806336568abe146101f0578063379607f5146102035780634958e1a11461021657600080fd5b806301ffc9a71461013157806303f7a68c1461015957806306def8021461016f5780630a463e1c1461018257806310fe9ae8146101a7575b600080fd5b61014461013f366004611325565b61033a565b60405190151581526020015b60405180910390f35b610161610371565b604051908152602001610150565b61016161017d36600461136b565b6103f1565b6002546001600160a01b03165b6040516001600160a01b039091168152602001610150565b6001546001600160a01b031661018f565b6101616101c6366004611386565b60009081526020819052604090206001015490565b6101ee6101e936600461139f565b61051c565b005b6101ee6101fe36600461139f565b610546565b6101ee610211366004611386565b6105c9565b6101616107a2565b61014461022c36600461139f565b6107ae565b610161600081565b6101616107d7565b6101ee61024f36600461136b565b610833565b61026761026236600461136b565b6108e8565b604051610150919081516001600160a01b031681526020808301519082015260408083015190820152606080830151908201526080808301519082015260a0828101519082015260c0808301519082015260e0918201511515918101919091526101000190565b6101ee6102dc3660046113cb565b6109b8565b6101ee6102ef36600461139f565b610ac1565b6101ee610302366004611465565b610ae6565b61031a610315366004611554565b610c18565b6040516101509190611576565b6101ee6103353660046115c3565b610cfd565b60006001600160e01b03198216637965db0b60e01b148061036b57506301ffc9a760e01b6001600160e01b03198316145b92915050565b600154600254604051636eb1769f60e11b81526001600160a01b039182166004820152306024820152600092919091169063dd62ed3e90604401602060405180830381865afa1580156103c8573d6000803e3d6000fd5b505050506040513d601f19601f820116820180604052508101906103ec9190611605565b905090565b6001600160a01b038116600090815260056020526040812060048101546003820154839161041e91611634565b9050428181101561043457506000949350505050565b600783015460009060ff161561046d5782846006015411610456576000610466565b8284600601546104669190611647565b90506104a0565b600084600501548461047f9190611634565b905080831061049257846005015461049c565b61049c8484611647565b9150505b600084600501548286600101546104b7919061165a565b6104c19190611671565b90506000856002015482116104d75760006104e6565b60028601546104e69083611647565b600787015490915060ff168015610501575085600601548410155b1561051157979650505050505050565b979650505050505050565b60008281526020819052604090206001015461053781610d6e565b6105418383610d7b565b505050565b6001600160a01b03811633146105bb5760405162461bcd60e51b815260206004820152602f60248201527f416363657373436f6e74726f6c3a2063616e206f6e6c792072656e6f756e636560448201526e103937b632b9903337b91039b2b63360891b60648201526084015b60405180910390fd5b6105c58282610dff565b5050565b336000818152600560205260409020546001600160a01b0316146106005760405163502ffa3f60e11b815260040160405180910390fd5b80600003610621576040516360640efd60e11b815260040160405180910390fd5b33600090815260056020526040902060048101546003820154429161064591611634565b8110156106835780826004015483600301546106619190611634565b6040516367f2a6c360e11b8152600481019290925260248201526044016105b2565b600061068e336103f1565b9050808411156106bb5760405163271fb30560e21b815260048101859052602481018290526044016105b2565b838360020160008282546106cf9190611634565b90915550506001546002546001600160a01b03918216916323b872dd9116336040516001600160e01b031960e085901b1681526001600160a01b03928316600482015291166024820152604481018790526064016020604051808303816000875af1158015610742573d6000803e3d6000fd5b505050506040513d601f19601f820116820180604052508101906107669190611693565b5060405184815233907f896e034966eaaf1adc54acc0f257056febbd300c9e47182cf761982cf1f5e4309060200160405180910390a250505050565b60006103ec6003610e64565b6000918252602082815260408084206001600160a01b0393909316845291905290205460ff1690565b600080806107e56003610e64565b905060005b8181101561082b5760056000610801600384610e6e565b6001600160a01b0316815260208101919091526040016000206001908101549390930192016107ea565b509092915050565b61085d7f654cf90216eecc7de4eb1e1f3b7b3cf7e630c873f6cf3ff18753f0093c958207336107ae565b15801561087257506108706000336107ae565b155b156108905760405163662136cd60e11b815260040160405180910390fd5b6001600160a01b03811660008181526005602052604080822060078101805460ff191690556006810183905590519092917f6f64e2246d8a5cd8d55ea99199b39ac605693722f899ac2405b7c54bae3eda7e91a25050565b61093b60405180610100016040528060006001600160a01b031681526020016000815260200160008152602001600081526020016000815260200160008152602001600081526020016000151581525090565b506001600160a01b0390811660009081526005602081815260409283902083516101008101855281549095168552600181015491850191909152600281015492840192909252600382015460608401526004820154608084015281015460a0830152600681015460c08301526007015460ff16151560e082015290565b6109e27f654cf90216eecc7de4eb1e1f3b7b3cf7e630c873f6cf3ff18753f0093c958207336107ae565b1580156109f757506109f56000336107ae565b155b15610a155760405163662136cd60e11b815260040160405180910390fd5b6001600160a01b038216600090815260056020526040902060038101548211610a615760038101546040516349d7e3e960e01b81526105b2918491600401918252602082015260400190565b6006810182905560078101805460ff191660011790556040516001600160a01b038416907f96a3db8ae0226bd6c5e331039c8dc9bad983d211de42680d9775dfbddb1b71a990610ab49085815260200190565b60405180910390a2505050565b600082815260208190526040902060010154610adc81610d6e565b6105418383610dff565b610b107f88df8672b6a816cafb7f0f91f61a06a8a1f7c9088af1db2285870c32fed77b39336107ae565b158015610b255750610b236000336107ae565b155b15610b435760405163ce37e7ad60e01b815260040160405180910390fd5b8051600003610b655760405163d77fbd1d60e01b815260040160405180910390fd5b805160005b8181101561054157610c10838281518110610b8757610b876116b5565b602002602001015160000151848381518110610ba557610ba56116b5565b602002602001015160200151858481518110610bc357610bc36116b5565b602002602001015160400151868581518110610be157610be16116b5565b602002602001015160600151878681518110610bff57610bff6116b5565b602002602001015160800151610e81565b600101610b6a565b60606000610c266003610e64565b9050808410610c4557505060408051600081526020810190915261036b565b80610c508486611634565b1115610c6357610c608482611647565b92505b60008367ffffffffffffffff811115610c7e57610c7e6113f5565b604051908082528060200260200182016040528015610ca7578160200160208202803683370190505b50905060005b84811015610cf457610cc26003878301610e6e565b828281518110610cd457610cd46116b5565b6001600160a01b0390921660209283029190910190910152600101610cad565b50949350505050565b610d277f88df8672b6a816cafb7f0f91f61a06a8a1f7c9088af1db2285870c32fed77b39336107ae565b158015610d3c5750610d3a6000336107ae565b155b15610d5a5760405163ce37e7ad60e01b815260040160405180910390fd5b610d678585858585610e81565b5050505050565b610d78813361106e565b50565b610d8582826107ae565b6105c5576000828152602081815260408083206001600160a01b03851684529091529020805460ff19166001179055610dbb3390565b6001600160a01b0316816001600160a01b0316837f2f8788117e7eff1d82e926ec794901d17c78024a50270940304540a733656f0d60405160405180910390a45050565b610e0982826107ae565b156105c5576000828152602081815260408083206001600160a01b0385168085529252808320805460ff1916905551339285917ff6391f5c32d9c69d2a47ea670b442974b53935d1edc7fd64eb21e047a839171b9190a45050565b600061036b825490565b6000610e7a83836110c7565b9392505050565b610eab7f88df8672b6a816cafb7f0f91f61a06a8a1f7c9088af1db2285870c32fed77b39336107ae565b158015610ec05750610ebe6000336107ae565b155b15610ede5760405163ce37e7ad60e01b815260040160405180910390fd5b6001600160a01b038516610f055760405163502ffa3f60e11b815260040160405180910390fd5b83600003610f26576040516307e7e9a960e21b815260040160405180910390fd5b610f316003866110f1565b15610f5957604051620118fb60e11b81526001600160a01b03861660048201526024016105b2565b60408051610100810182526001600160a01b0387811680835260208084018981526000858701818152606087018b8152608088018b815260a089018b815260c08a0185815260e08b018681529886526005978890529a909420985189546001600160a01b03191698169790971788559251600188015551600287015590516003808701919091559351600486015551908401559251600683015591516007909101805460ff19169115159190911790556110139086611113565b506040805185815260208101859052908101839052606081018290526001600160a01b038616907f9f7f47e73fd629c582be438a08553de4dc70f4b96c2735ad7ff9ec4314096e859060800160405180910390a25050505050565b61107882826107ae565b6105c55761108581611128565b61109083602061113a565b6040516020016110a19291906116ef565b60408051601f198184030181529082905262461bcd60e51b82526105b291600401611764565b60008260000182815481106110de576110de6116b5565b9060005260206000200154905092915050565b6001600160a01b03811660009081526001830160205260408120541515610e7a565b6000610e7a836001600160a01b0384166112d6565b606061036b6001600160a01b03831660145b6060600061114983600261165a565b611154906002611634565b67ffffffffffffffff81111561116c5761116c6113f5565b6040519080825280601f01601f191660200182016040528015611196576020820181803683370190505b509050600360fc1b816000815181106111b1576111b16116b5565b60200101906001600160f81b031916908160001a905350600f60fb1b816001815181106111e0576111e06116b5565b60200101906001600160f81b031916908160001a905350600061120484600261165a565b61120f906001611634565b90505b6001811115611287576f181899199a1a9b1b9c1cb0b131b232b360811b85600f1660108110611243576112436116b5565b1a60f81b828281518110611259576112596116b5565b60200101906001600160f81b031916908160001a90535060049490941c9361128081611797565b9050611212565b508315610e7a5760405162461bcd60e51b815260206004820181905260248201527f537472696e67733a20686578206c656e67746820696e73756666696369656e7460448201526064016105b2565b600081815260018301602052604081205461131d5750815460018181018455600084815260208082209093018490558454848252828601909352604090209190915561036b565b50600061036b565b60006020828403121561133757600080fd5b81356001600160e01b031981168114610e7a57600080fd5b80356001600160a01b038116811461136657600080fd5b919050565b60006020828403121561137d57600080fd5b610e7a8261134f565b60006020828403121561139857600080fd5b5035919050565b600080604083850312156113b257600080fd5b823591506113c26020840161134f565b90509250929050565b600080604083850312156113de57600080fd5b6113e78361134f565b946020939093013593505050565b634e487b7160e01b600052604160045260246000fd5b60405160a0810167ffffffffffffffff8111828210171561142e5761142e6113f5565b60405290565b604051601f8201601f1916810167ffffffffffffffff8111828210171561145d5761145d6113f5565b604052919050565b6000602080838503121561147857600080fd5b823567ffffffffffffffff8082111561149057600080fd5b818501915085601f8301126114a457600080fd5b8135818111156114b6576114b66113f5565b6114c4848260051b01611434565b818152848101925060a09182028401850191888311156114e357600080fd5b938501935b828510156115485780858a0312156115005760008081fd5b61150861140b565b6115118661134f565b81528587013587820152604080870135908201526060808701359082015260808087013590820152845293840193928501926114e8565b50979650505050505050565b6000806040838503121561156757600080fd5b50508035926020909101359150565b6020808252825182820181905260009190848201906040850190845b818110156115b75783516001600160a01b031683529284019291840191600101611592565b50909695505050505050565b600080600080600060a086880312156115db57600080fd5b6115e48661134f565b97602087013597506040870135966060810135965060800135945092505050565b60006020828403121561161757600080fd5b5051919050565b634e487b7160e01b600052601160045260246000fd5b8082018082111561036b5761036b61161e565b8181038181111561036b5761036b61161e565b808202811582820484141761036b5761036b61161e565b60008261168e57634e487b7160e01b600052601260045260246000fd5b500490565b6000602082840312156116a557600080fd5b81518015158114610e7a57600080fd5b634e487b7160e01b600052603260045260246000fd5b60005b838110156116e65781810151838201526020016116ce565b50506000910152565b7f416363657373436f6e74726f6c3a206163636f756e74200000000000000000008152600083516117278160178501602088016116cb565b7001034b99036b4b9b9b4b733903937b6329607d1b60179184019182015283516117588160288401602088016116cb565b01602801949350505050565b60208152600082518060208401526117838160408501602087016116cb565b601f01601f19169190910160400192915050565b6000816117a6576117a661161e565b50600019019056fea2646970667358221220162ff7d608e4172880bd6be667e7becdc97ac24fc44523fa5d29b6b99d029da164736f6c63430008130033",
  "devdoc": {
    "errors": {
      "AmountExceedsWithdrawableAllowance(uint256,uint256)": [
        {
          "params": {
            "amount": "Amount of tokens to be claimed.",
            "claimable": "Amount of tokens that can be claimed."
          }
        }
      ],
      "CallerIsNotATerminationAdmin()": [
        {
          "details": "Reverts if the caller is not a termination admin."
        }
      ],
      "CallerIsNotATimelockCreator()": [
        {
          "details": "Reverts if the caller is not the timelock creator."
        }
      ],
      "ReceiverAlreadyHasATimelock(address)": [
        {
          "params": {
            "receiver": "Address of the receiver."
          }
        }
      ],
      "TerminationTimeMustBeAfterLockStart(uint256,uint256)": [
        {
          "params": {
            "lockFrom": "Timestamp from which tokens will be locked.",
            "terminationFrom": "Timestamp from which tokens will be terminated."
          }
        }
      ],
      "TokenTransferFailed(address,address,uint256)": [
        {
          "params": {
            "amount": "Amount of tokens transferred.",
            "receiver": "Address of the receiver.",
            "tokenPool": "Address of the token pool."
          }
        }
      ]
    },
    "events": {
      "RoleAdminChanged(bytes32,bytes32,bytes32)": {
        "details": "Emitted when `newAdminRole` is set as ``role``'s admin role, replacing `previousAdminRole` `DEFAULT_ADMIN_ROLE` is the starting admin for all roles, despite {RoleAdminChanged} not being emitted signaling this. _Available since v3.1._"
      },
      "RoleGranted(bytes32,address,address)": {
        "details": "Emitted when `account` is granted `role`. `sender` is the account that originated the contract call, an admin role bearer except when using {AccessControl-_setupRole}."
      },
      "RoleRevoked(bytes32,address,address)": {
        "details": "Emitted when `account` is revoked `role`. `sender` is the account that originated the contract call:   - if using `revokeRole`, it is the admin role bearer   - if using `renounceRole`, it is the role bearer (i.e. `account`)"
      },
      "TimelockCreated(address,uint256,uint256,uint256,uint256)": {
        "params": {
          "cliffDuration": "Cliff time in seconds (6 months default).",
          "receiver": "Address of the receiver.",
          "totalAmount": "Total amount of tokens to be vested.",
          "vestingDuration": "Vesting duration in seconds (18/24 months)."
        }
      },
      "TimelockDeterminated(address)": {
        "params": {
          "receiver": "Address of the receiver."
        }
      },
      "TimelockTerminated(address,uint256)": {
        "params": {
          "receiver": "Address of the receiver.",
          "terminationFrom": "Timestamp from which tokens will be terminated."
        }
      },
      "TokensClaimed(address,uint256)": {
        "params": {
          "amount": "Amount of tokens claimed.",
          "receiver": "Address of the claimer."
        }
      }
    },
    "kind": "dev",
    "methods": {
      "addTimelock(address,uint256,uint256,uint256,uint256)": {
        "params": {
          "cliffDuration": "Cliff time in seconds (6 months default).",
          "receiver": "Address of the receiver.",
          "timelockFrom": "Timestamp from which the timelock will start.",
          "totalAmount": "Total amount of tokens to be vested.",
          "vestingDuration": "Vesting duration in seconds (18/24 months)."
        }
      },
      "addTimelockBatch((address,uint256,uint256,uint256,uint256)[])": {
        "params": {
          "receivers": "Array of receivers."
        }
      },
      "claim(uint256)": {
        "params": {
          "amount": "Amount of tokens to be claimed."
        }
      },
      "determinate(address)": {
        "params": {
          "receiver": "Address of the receiver."
        }
      },
      "getClaimableBalance(address)": {
        "params": {
          "receiver": "Address of the receiver."
        }
      },
      "getRoleAdmin(bytes32)": {
        "details": "Returns the admin role that controls `role`. See {grantRole} and {revokeRole}. To change a role's admin, use {_setRoleAdmin}."
      },
      "getTimelock(address)": {
        "params": {
          "receiver": "Address of the receiver."
        }
      },
      "getTimelockReceivers(uint256,uint256)": {
        "params": {
          "limit": "Limit of receivers to be returned.",
          "offset": "Offset from which receivers will be returned."
        }
      },
      "grantRole(bytes32,address)": {
        "details": "Grants `role` to `account`. If `account` had not been already granted `role`, emits a {RoleGranted} event. Requirements: - the caller must have ``role``'s admin role. May emit a {RoleGranted} event."
      },
      "hasRole(bytes32,address)": {
        "details": "Returns `true` if `account` has been granted `role`."
      },
      "renounceRole(bytes32,address)": {
        "details": "Revokes `role` from the calling account. Roles are often managed via {grantRole} and {revokeRole}: this function's purpose is to provide a mechanism for accounts to lose their privileges if they are compromised (such as when a trusted device is misplaced). If the calling account had been revoked `role`, emits a {RoleRevoked} event. Requirements: - the caller must be `account`. May emit a {RoleRevoked} event."
      },
      "revokeRole(bytes32,address)": {
        "details": "Revokes `role` from `account`. If `account` had been granted `role`, emits a {RoleRevoked} event. Requirements: - the caller must have ``role``'s admin role. May emit a {RoleRevoked} event."
      },
      "supportsInterface(bytes4)": {
        "details": "See {IERC165-supportsInterface}."
      },
      "terminate(address,uint256)": {
        "params": {
          "receiver": "Address of the receiver.",
          "terminationFrom": "Timestamp from which tokens will be terminated."
        }
      }
    },
    "stateVariables": {
      "_token": {
        "details": "Link to IQT repository: https://github.com/iqlabsorg/iqt-eth"
      }
    },
    "version": 1
  },
  "userdoc": {
    "errors": {
      "AmountExceedsWithdrawableAllowance(uint256,uint256)": [
        {
          "notice": "Reverts if amount exceeds vesting allowance."
        }
      ],
      "CliffPeriodNotEnded(uint256,uint256)": [
        {
          "notice": "Reverts if cliff period has not ended."
        }
      ],
      "EmptyReceiversArray()": [
        {
          "notice": "Reverts if empty receivers array is passed."
        }
      ],
      "InvalidReceiverAddress()": [
        {
          "notice": "Reverts if invalid receiver address is passed."
        }
      ],
      "InvalidTimelockAmount()": [
        {
          "notice": "Reverts if invalid timelock amount is passed."
        }
      ],
      "ReceiverAlreadyHasATimelock(address)": [
        {
          "notice": "Reverts if receiver already has a timelock."
        }
      ],
      "TerminationTimeMustBeAfterLockStart(uint256,uint256)": [
        {
          "notice": "Reverts if termination time is before lock start."
        }
      ],
      "TokenTransferFailed(address,address,uint256)": [
        {
          "notice": "Reverts if token transfer failed."
        }
      ],
      "ZeroAllocation()": [
        {
          "notice": "Reverts if vesting period has not started."
        }
      ],
      "ZeroClaimAmount()": [
        {
          "notice": "Reverts if zero claim amount is passed."
        }
      ]
    },
    "events": {
      "TimelockCreated(address,uint256,uint256,uint256,uint256)": {
        "notice": "Emits when timelock is created."
      },
      "TimelockDeterminated(address)": {
        "notice": "Emits when timelock is determinated."
      },
      "TimelockTerminated(address,uint256)": {
        "notice": "Emits when timelock is terminated."
      },
      "TokensClaimed(address,uint256)": {
        "notice": "Emits when tokens are claimed."
      }
    },
    "kind": "user",
    "methods": {
      "addTimelock(address,uint256,uint256,uint256,uint256)": {
        "notice": "Creates timelock for token receiver."
      },
      "addTimelockBatch((address,uint256,uint256,uint256,uint256)[])": {
        "notice": "Creates timelock for token receivers in a batch mode."
      },
      "claim(uint256)": {
        "notice": "Claims tokens for the receiver."
      },
      "constructor": {
        "notice": "Reverts if the timelock does not exist."
      },
      "determinate(address)": {
        "notice": "Determinates timelock for the receiver."
      },
      "getClaimableBalance(address)": {
        "notice": "Returns the amount of tokens that are currently allowed for claim."
      },
      "getCurrentAllowance()": {
        "notice": "Returns the amount of tokens that are currently allowed for transfer."
      },
      "getTimelock(address)": {
        "notice": "Returns the timelock data."
      },
      "getTimelockReceivers(uint256,uint256)": {
        "notice": "Returns the array of timelock receivers."
      },
      "getTimelockReceiversAmount()": {
        "notice": "Returns the amount of timelock receivers."
      },
      "getTokenAddress()": {
        "notice": "Returns the address of token."
      },
      "getTotalTokensLocked()": {
        "notice": "Returns the amount of tokens that are currently locked."
      },
      "getVestingPoolAddress()": {
        "notice": "Returns the address of vesting pool."
      },
      "terminate(address,uint256)": {
        "notice": "Terminates timelock for the receiver."
      }
    },
    "version": 1
  },
  "storageLayout": {
    "storage": [
      {
        "astId": 24,
        "contract": "contracts/timelock/BatchTimelock.sol:BatchTimelock",
        "label": "_roles",
        "offset": 0,
        "slot": "0",
        "type": "t_mapping(t_bytes32,t_struct(RoleData)19_storage)"
      },
      {
        "astId": 4825,
        "contract": "contracts/timelock/BatchTimelock.sol:BatchTimelock",
        "label": "_token",
        "offset": 0,
        "slot": "1",
        "type": "t_contract(IERC20)466"
      },
      {
        "astId": 4828,
        "contract": "contracts/timelock/BatchTimelock.sol:BatchTimelock",
        "label": "_vestingPool",
        "offset": 0,
        "slot": "2",
        "type": "t_address"
      },
      {
        "astId": 4832,
        "contract": "contracts/timelock/BatchTimelock.sol:BatchTimelock",
        "label": "_allReceivers",
        "offset": 0,
        "slot": "3",
        "type": "t_struct(AddressSet)2050_storage"
      },
      {
        "astId": 4838,
        "contract": "contracts/timelock/BatchTimelock.sol:BatchTimelock",
        "label": "_timelocks",
        "offset": 0,
        "slot": "5",
        "type": "t_mapping(t_address,t_struct(Timelock)5639_storage)"
      }
    ],
    "types": {
      "t_address": {
        "encoding": "inplace",
        "label": "address",
        "numberOfBytes": "20"
      },
      "t_array(t_bytes32)dyn_storage": {
        "base": "t_bytes32",
        "encoding": "dynamic_array",
        "label": "bytes32[]",
        "numberOfBytes": "32"
      },
      "t_bool": {
        "encoding": "inplace",
        "label": "bool",
        "numberOfBytes": "1"
      },
      "t_bytes32": {
        "encoding": "inplace",
        "label": "bytes32",
        "numberOfBytes": "32"
      },
      "t_contract(IERC20)466": {
        "encoding": "inplace",
        "label": "contract IERC20",
        "numberOfBytes": "20"
      },
      "t_mapping(t_address,t_bool)": {
        "encoding": "mapping",
        "key": "t_address",
        "label": "mapping(address => bool)",
        "numberOfBytes": "32",
        "value": "t_bool"
      },
      "t_mapping(t_address,t_struct(Timelock)5639_storage)": {
        "encoding": "mapping",
        "key": "t_address",
        "label": "mapping(address => struct IBatchTimelock.Timelock)",
        "numberOfBytes": "32",
        "value": "t_struct(Timelock)5639_storage"
      },
      "t_mapping(t_bytes32,t_struct(RoleData)19_storage)": {
        "encoding": "mapping",
        "key": "t_bytes32",
        "label": "mapping(bytes32 => struct AccessControl.RoleData)",
        "numberOfBytes": "32",
        "value": "t_struct(RoleData)19_storage"
      },
      "t_mapping(t_bytes32,t_uint256)": {
        "encoding": "mapping",
        "key": "t_bytes32",
        "label": "mapping(bytes32 => uint256)",
        "numberOfBytes": "32",
        "value": "t_uint256"
      },
      "t_struct(AddressSet)2050_storage": {
        "encoding": "inplace",
        "label": "struct EnumerableSet.AddressSet",
        "members": [
          {
            "astId": 2049,
            "contract": "contracts/timelock/BatchTimelock.sol:BatchTimelock",
            "label": "_inner",
            "offset": 0,
            "slot": "0",
            "type": "t_struct(Set)1735_storage"
          }
        ],
        "numberOfBytes": "64"
      },
      "t_struct(RoleData)19_storage": {
        "encoding": "inplace",
        "label": "struct AccessControl.RoleData",
        "members": [
          {
            "astId": 16,
            "contract": "contracts/timelock/BatchTimelock.sol:BatchTimelock",
            "label": "members",
            "offset": 0,
            "slot": "0",
            "type": "t_mapping(t_address,t_bool)"
          },
          {
            "astId": 18,
            "contract": "contracts/timelock/BatchTimelock.sol:BatchTimelock",
            "label": "adminRole",
            "offset": 0,
            "slot": "1",
            "type": "t_bytes32"
          }
        ],
        "numberOfBytes": "64"
      },
      "t_struct(Set)1735_storage": {
        "encoding": "inplace",
        "label": "struct EnumerableSet.Set",
        "members": [
          {
            "astId": 1730,
            "contract": "contracts/timelock/BatchTimelock.sol:BatchTimelock",
            "label": "_values",
            "offset": 0,
            "slot": "0",
            "type": "t_array(t_bytes32)dyn_storage"
          },
          {
            "astId": 1734,
            "contract": "contracts/timelock/BatchTimelock.sol:BatchTimelock",
            "label": "_indexes",
            "offset": 0,
            "slot": "1",
            "type": "t_mapping(t_bytes32,t_uint256)"
          }
        ],
        "numberOfBytes": "64"
      },
      "t_struct(Timelock)5639_storage": {
        "encoding": "inplace",
        "label": "struct IBatchTimelock.Timelock",
        "members": [
          {
            "astId": 5624,
            "contract": "contracts/timelock/BatchTimelock.sol:BatchTimelock",
            "label": "receiver",
            "offset": 0,
            "slot": "0",
            "type": "t_address"
          },
          {
            "astId": 5626,
            "contract": "contracts/timelock/BatchTimelock.sol:BatchTimelock",
            "label": "totalAmount",
            "offset": 0,
            "slot": "1",
            "type": "t_uint256"
          },
          {
            "astId": 5628,
            "contract": "contracts/timelock/BatchTimelock.sol:BatchTimelock",
            "label": "releasedAmount",
            "offset": 0,
            "slot": "2",
            "type": "t_uint256"
          },
          {
            "astId": 5630,
            "contract": "contracts/timelock/BatchTimelock.sol:BatchTimelock",
            "label": "timelockFrom",
            "offset": 0,
            "slot": "3",
            "type": "t_uint256"
          },
          {
            "astId": 5632,
            "contract": "contracts/timelock/BatchTimelock.sol:BatchTimelock",
            "label": "cliffDuration",
            "offset": 0,
            "slot": "4",
            "type": "t_uint256"
          },
          {
            "astId": 5634,
            "contract": "contracts/timelock/BatchTimelock.sol:BatchTimelock",
            "label": "vestingDuration",
            "offset": 0,
            "slot": "5",
            "type": "t_uint256"
          },
          {
            "astId": 5636,
            "contract": "contracts/timelock/BatchTimelock.sol:BatchTimelock",
            "label": "terminationFrom",
            "offset": 0,
            "slot": "6",
            "type": "t_uint256"
          },
          {
            "astId": 5638,
            "contract": "contracts/timelock/BatchTimelock.sol:BatchTimelock",
            "label": "isTerminated",
            "offset": 0,
            "slot": "7",
            "type": "t_bool"
          }
        ],
        "numberOfBytes": "256"
      },
      "t_uint256": {
        "encoding": "inplace",
        "label": "uint256",
        "numberOfBytes": "32"
      }
    }
  }
}